{
    "_format": "hh-sol-artifact-1",
    "contractName": "ComapnyInfo",
    "sourceName": "contracts/Chainlink.sol",
    "abi": [
        {
            "inputs": [],
            "stateMutability": "nonpayable",
            "type": "constructor"
        },
        {
            "inputs": [],
            "name": "EmptyArgs",
            "type": "error"
        },
        {
            "inputs": [],
            "name": "EmptySource",
            "type": "error"
        },
        {
            "inputs": [],
            "name": "NoInlineSecrets",
            "type": "error"
        },
        {
            "inputs": [],
            "name": "OnlyRouterCanFulfill",
            "type": "error"
        },
        {
            "inputs": [
                {
                    "internalType": "bytes32",
                    "name": "requestId",
                    "type": "bytes32"
                }
            ],
            "name": "UnexpectedRequestID",
            "type": "error"
        },
        {
            "anonymous": false,
            "inputs": [
                {
                    "indexed": true,
                    "internalType": "address",
                    "name": "from",
                    "type": "address"
                },
                {
                    "indexed": true,
                    "internalType": "address",
                    "name": "to",
                    "type": "address"
                }
            ],
            "name": "OwnershipTransferRequested",
            "type": "event"
        },
        {
            "anonymous": false,
            "inputs": [
                {
                    "indexed": true,
                    "internalType": "address",
                    "name": "from",
                    "type": "address"
                },
                {
                    "indexed": true,
                    "internalType": "address",
                    "name": "to",
                    "type": "address"
                }
            ],
            "name": "OwnershipTransferred",
            "type": "event"
        },
        {
            "anonymous": false,
            "inputs": [
                {
                    "indexed": true,
                    "internalType": "bytes32",
                    "name": "id",
                    "type": "bytes32"
                }
            ],
            "name": "RequestFulfilled",
            "type": "event"
        },
        {
            "anonymous": false,
            "inputs": [
                {
                    "indexed": true,
                    "internalType": "bytes32",
                    "name": "id",
                    "type": "bytes32"
                }
            ],
            "name": "RequestSent",
            "type": "event"
        },
        {
            "anonymous": false,
            "inputs": [
                {
                    "indexed": true,
                    "internalType": "bytes32",
                    "name": "requestId",
                    "type": "bytes32"
                },
                {
                    "indexed": false,
                    "internalType": "string",
                    "name": "character",
                    "type": "string"
                },
                {
                    "indexed": false,
                    "internalType": "bytes",
                    "name": "response",
                    "type": "bytes"
                },
                {
                    "indexed": false,
                    "internalType": "bytes",
                    "name": "err",
                    "type": "bytes"
                }
            ],
            "name": "Response",
            "type": "event"
        },
        {
            "inputs": [],
            "name": "acceptOwnership",
            "outputs": [],
            "stateMutability": "nonpayable",
            "type": "function"
        },
        {
            "inputs": [],
            "name": "character",
            "outputs": [
                {
                    "internalType": "string",
                    "name": "",
                    "type": "string"
                }
            ],
            "stateMutability": "view",
            "type": "function"
        },
        {
            "inputs": [
                {
                    "internalType": "bytes32",
                    "name": "requestId",
                    "type": "bytes32"
                },
                {
                    "internalType": "bytes",
                    "name": "response",
                    "type": "bytes"
                },
                {
                    "internalType": "bytes",
                    "name": "err",
                    "type": "bytes"
                }
            ],
            "name": "handleOracleFulfillment",
            "outputs": [],
            "stateMutability": "nonpayable",
            "type": "function"
        },
        {
            "inputs": [],
            "name": "owner",
            "outputs": [
                {
                    "internalType": "address",
                    "name": "",
                    "type": "address"
                }
            ],
            "stateMutability": "view",
            "type": "function"
        },
        {
            "inputs": [],
            "name": "s_lastError",
            "outputs": [
                {
                    "internalType": "bytes",
                    "name": "",
                    "type": "bytes"
                }
            ],
            "stateMutability": "view",
            "type": "function"
        },
        {
            "inputs": [],
            "name": "s_lastRequestId",
            "outputs": [
                {
                    "internalType": "bytes32",
                    "name": "",
                    "type": "bytes32"
                }
            ],
            "stateMutability": "view",
            "type": "function"
        },
        {
            "inputs": [],
            "name": "s_lastResponse",
            "outputs": [
                {
                    "internalType": "bytes",
                    "name": "",
                    "type": "bytes"
                }
            ],
            "stateMutability": "view",
            "type": "function"
        },
        {
            "inputs": [
                {
                    "internalType": "uint64",
                    "name": "subscriptionId",
                    "type": "uint64"
                },
                {
                    "internalType": "string[]",
                    "name": "args",
                    "type": "string[]"
                }
            ],
            "name": "sendRequest",
            "outputs": [
                {
                    "internalType": "bytes32",
                    "name": "requestId",
                    "type": "bytes32"
                }
            ],
            "stateMutability": "nonpayable",
            "type": "function"
        },
        {
            "inputs": [
                {
                    "internalType": "address",
                    "name": "to",
                    "type": "address"
                }
            ],
            "name": "transferOwnership",
            "outputs": [],
            "stateMutability": "nonpayable",
            "type": "function"
        }
    ],
    "bytecode": "0x60a0604052736e2dc0f9db014ae19888f539e59285d2ea04244c600560006101000a81548173ffffffffffffffffffffffffffffffffffffffff021916908373ffffffffffffffffffffffffffffffffffffffff160217905550604051806102600160405280610231815260200162002f4b610231913960069081620000869190620005e7565b50620493e0600760006101000a81548163ffffffff021916908363ffffffff1602179055507f66756e2d706f6c79676f6e2d6d756d6261692d3100000000000000000000000060001b600855348015620000df57600080fd5b5033806000600560009054906101000a900473ffffffffffffffffffffffffffffffffffffffff168073ffffffffffffffffffffffffffffffffffffffff1660808173ffffffffffffffffffffffffffffffffffffffff168152505050600073ffffffffffffffffffffffffffffffffffffffff168273ffffffffffffffffffffffffffffffffffffffff1603620001ae576040517f08c379a0000000000000000000000000000000000000000000000000000000008152600401620001a5906200072f565b60405180910390fd5b816000806101000a81548173ffffffffffffffffffffffffffffffffffffffff021916908373ffffffffffffffffffffffffffffffffffffffff160217905550600073ffffffffffffffffffffffffffffffffffffffff168173ffffffffffffffffffffffffffffffffffffffff1614620002355762000234816200023e60201b60201c565b5b505050620007c3565b3373ffffffffffffffffffffffffffffffffffffffff168173ffffffffffffffffffffffffffffffffffffffff1603620002af576040517f08c379a0000000000000000000000000000000000000000000000000000000008152600401620002a690620007a1565b60405180910390fd5b80600160006101000a81548173ffffffffffffffffffffffffffffffffffffffff021916908373ffffffffffffffffffffffffffffffffffffffff1602179055508073ffffffffffffffffffffffffffffffffffffffff1660008054906101000a900473ffffffffffffffffffffffffffffffffffffffff1673ffffffffffffffffffffffffffffffffffffffff167fed8889f560326eb138920d842192f0eb3dd22b4f139c87a2c57538e05bae127860405160405180910390a350565b600081519050919050565b7f4e487b7100000000000000000000000000000000000000000000000000000000600052604160045260246000fd5b7f4e487b7100000000000000000000000000000000000000000000000000000000600052602260045260246000fd5b60006002820490506001821680620003ef57607f821691505b602082108103620004055762000404620003a7565b5b50919050565b60008190508160005260206000209050919050565b60006020601f8301049050919050565b600082821b905092915050565b6000600883026200046f7fffffffffffffffffffffffffffffffffffffffffffffffffffffffffffffffff8262000430565b6200047b868362000430565b95508019841693508086168417925050509392505050565b6000819050919050565b6000819050919050565b6000620004c8620004c2620004bc8462000493565b6200049d565b62000493565b9050919050565b6000819050919050565b620004e483620004a7565b620004fc620004f382620004cf565b8484546200043d565b825550505050565b600090565b6200051362000504565b62000520818484620004d9565b505050565b5b8181101562000548576200053c60008262000509565b60018101905062000526565b5050565b601f821115620005975762000561816200040b565b6200056c8462000420565b810160208510156200057c578190505b620005946200058b8562000420565b83018262000525565b50505b505050565b600082821c905092915050565b6000620005bc600019846008026200059c565b1980831691505092915050565b6000620005d78383620005a9565b9150826002028217905092915050565b620005f2826200036d565b67ffffffffffffffff8111156200060e576200060d62000378565b5b6200061a8254620003d6565b620006278282856200054c565b600060209050601f8311600181146200065f57600084156200064a578287015190505b620006568582620005c9565b865550620006c6565b601f1984166200066f866200040b565b60005b82811015620006995784890151825560018201915060208501945060208101905062000672565b86831015620006b95784890151620006b5601f891682620005a9565b8355505b6001600288020188555050505b505050505050565b600082825260208201905092915050565b7f43616e6e6f7420736574206f776e657220746f207a65726f0000000000000000600082015250565b600062000717601883620006ce565b91506200072482620006df565b602082019050919050565b600060208201905081810360008301526200074a8162000708565b9050919050565b7f43616e6e6f74207472616e7366657220746f2073656c66000000000000000000600082015250565b600062000789601783620006ce565b9150620007968262000751565b602082019050919050565b60006020820190508181036000830152620007bc816200077a565b9050919050565b608051612765620007e6600039600081816101a20152610cbe01526127656000f3fe608060405234801561001057600080fd5b50600436106100935760003560e01c80634d2e03a0116100665780634d2e03a01461012057806379ba50971461013e5780638da5cb5b14610148578063b1e2174914610166578063f2fde38b1461018457610093565b80630ca76175146100985780633944ea3a146100b457806348a7d26d146100d25780634b0795a814610102575b600080fd5b6100b260048036038101906100ad9190611729565b6101a0565b005b6100bc610262565b6040516100c99190611833565b60405180910390f35b6100ec60048036038101906100e791906118f5565b6102f0565b6040516100f99190611964565b60405180910390f35b61010a610406565b6040516101179190611833565b60405180910390f35b610128610494565b60405161013591906119d4565b60405180910390f35b610146610522565b005b6101506106b7565b60405161015d9190611a37565b60405180910390f35b61016e6106e0565b60405161017b9190611964565b60405180910390f35b61019e60048036038101906101999190611a7e565b6106e6565b005b7f000000000000000000000000000000000000000000000000000000000000000073ffffffffffffffffffffffffffffffffffffffff163373ffffffffffffffffffffffffffffffffffffffff1614610225576040517fc6829f8300000000000000000000000000000000000000000000000000000000815260040160405180910390fd5b6102308383836106fa565b827f85e1543bf2f84fe80c6badbce3648c8539ad1df4d2b3d822938ca0538be727e660405160405180910390a2505050565b6003805461026f90611ada565b80601f016020809104026020016040519081016040528092919081815260200182805461029b90611ada565b80156102e85780601f106102bd576101008083540402835291602001916102e8565b820191906000526020600020905b8154815290600101906020018083116102cb57829003601f168201915b505050505081565b60006102fa6107b4565b6103026114ed565b61039f6006805461031290611ada565b80601f016020809104026020016040519081016040528092919081815260200182805461033e90611ada565b801561038b5780601f106103605761010080835404028352916020019161038b565b820191906000526020600020905b81548152906001019060200180831161036e57829003601f168201915b50505050508261084490919063ffffffff16565b60008484905011156103cb576103ca8484906103bb9190611c5f565b8261085590919063ffffffff16565b5b6103f36103d78261089d565b86600760009054906101000a900463ffffffff16600854610cb9565b6002819055506002549150509392505050565b6004805461041390611ada565b80601f016020809104026020016040519081016040528092919081815260200182805461043f90611ada565b801561048c5780601f106104615761010080835404028352916020019161048c565b820191906000526020600020905b81548152906001019060200180831161046f57829003601f168201915b505050505081565b600980546104a190611ada565b80601f01602080910402602001604051908101604052809291908181526020018280546104cd90611ada565b801561051a5780601f106104ef5761010080835404028352916020019161051a565b820191906000526020600020905b8154815290600101906020018083116104fd57829003601f168201915b505050505081565b600160009054906101000a900473ffffffffffffffffffffffffffffffffffffffff1673ffffffffffffffffffffffffffffffffffffffff163373ffffffffffffffffffffffffffffffffffffffff16146105b2576040517f08c379a00000000000000000000000000000000000000000000000000000000081526004016105a990611cc0565b60405180910390fd5b60008060009054906101000a900473ffffffffffffffffffffffffffffffffffffffff169050336000806101000a81548173ffffffffffffffffffffffffffffffffffffffff021916908373ffffffffffffffffffffffffffffffffffffffff1602179055506000600160006101000a81548173ffffffffffffffffffffffffffffffffffffffff021916908373ffffffffffffffffffffffffffffffffffffffff1602179055503373ffffffffffffffffffffffffffffffffffffffff168173ffffffffffffffffffffffffffffffffffffffff167f8be0079c531659141344cd1fd0a4f28419497f9722a3daafe3b4186f6b6457e060405160405180910390a350565b60008060009054906101000a900473ffffffffffffffffffffffffffffffffffffffff16905090565b60025481565b6106ee6107b4565b6106f781610d9c565b50565b826002541461074057826040517fd068bf5b0000000000000000000000000000000000000000000000000000000081526004016107379190611964565b60405180910390fd5b816003908161074f9190611e96565b50816009908161075f9190611fc3565b50806004908161076f9190611e96565b50827f160ed0aaffbef6885155188b91459cb5a97d5daadccf7561d8c46deea6641b506009600360046040516107a79392919061219d565b60405180910390a2505050565b60008054906101000a900473ffffffffffffffffffffffffffffffffffffffff1673ffffffffffffffffffffffffffffffffffffffff163373ffffffffffffffffffffffffffffffffffffffff1614610842576040517f08c379a000000000000000000000000000000000000000000000000000000000815260040161083990612235565b60405180910390fd5b565b6108518260008084610ec8565b5050565b6000815103610890576040517ffe936cb700000000000000000000000000000000000000000000000000000000815260040160405180910390fd5b808260a001819052505050565b606060006108ac610100610f72565b90506108f66040518060400160405280600c81526020017f636f64654c6f636174696f6e000000000000000000000000000000000000000081525082610f9990919063ffffffff16565b61091f836000015160028111156109105761090f612255565b5b82610fc290919063ffffffff16565b6109676040518060400160405280600881526020017f6c616e677561676500000000000000000000000000000000000000000000000081525082610f9990919063ffffffff16565b6109908360400151600081111561098157610980612255565b5b82610fc290919063ffffffff16565b6109d86040518060400160405280600681526020017f736f75726365000000000000000000000000000000000000000000000000000081525082610f9990919063ffffffff16565b6109ef836060015182610f9990919063ffffffff16565b60008360a00151511115610aab57610a456040518060400160405280600481526020017f617267730000000000000000000000000000000000000000000000000000000081525082610f9990919063ffffffff16565b610a4e81611012565b60005b8360a0015151811015610aa057610a8f8460a001518281518110610a7857610a77612284565b5b602002602001015183610f9990919063ffffffff16565b80610a99906122e2565b9050610a51565b50610aaa8161103a565b5b60008360800151511115610bec5760006002811115610acd57610acc612255565b5b83602001516002811115610ae457610ae3612255565b5b03610b1b576040517fa80d31f700000000000000000000000000000000000000000000000000000000815260040160405180910390fd5b610b636040518060400160405280600f81526020017f736563726574734c6f636174696f6e000000000000000000000000000000000081525082610f9990919063ffffffff16565b610b8c83602001516002811115610b7d57610b7c612255565b5b82610fc290919063ffffffff16565b610bd46040518060400160405280600781526020017f736563726574730000000000000000000000000000000000000000000000000081525082610f9990919063ffffffff16565b610beb83608001518261106290919063ffffffff16565b5b60008360c00151511115610ca857610c426040518060400160405280600981526020017f627974657341726773000000000000000000000000000000000000000000000081525082610f9990919063ffffffff16565b610c4b81611012565b60005b8360c0015151811015610c9d57610c8c8460c001518281518110610c7557610c74612284565b5b60200260200101518361106290919063ffffffff16565b80610c96906122e2565b9050610c4e565b50610ca78161103a565b5b806000015160000151915050919050565b6000807f000000000000000000000000000000000000000000000000000000000000000073ffffffffffffffffffffffffffffffffffffffff1663461d27628688600188886040518663ffffffff1660e01b8152600401610d1e959493929190612375565b6020604051808303816000875af1158015610d3d573d6000803e3d6000fd5b505050506040513d601f19601f82011682018060405250810190610d6191906123e4565b9050807f1131472297a800fee664d1d89cfa8f7676ff07189ecc53f80bbb5f4969099db860405160405180910390a280915050949350505050565b3373ffffffffffffffffffffffffffffffffffffffff168173ffffffffffffffffffffffffffffffffffffffff1603610e0a576040517f08c379a0000000000000000000000000000000000000000000000000000000008152600401610e019061245d565b60405180910390fd5b80600160006101000a81548173ffffffffffffffffffffffffffffffffffffffff021916908373ffffffffffffffffffffffffffffffffffffffff1602179055508073ffffffffffffffffffffffffffffffffffffffff1660008054906101000a900473ffffffffffffffffffffffffffffffffffffffff1673ffffffffffffffffffffffffffffffffffffffff167fed8889f560326eb138920d842192f0eb3dd22b4f139c87a2c57538e05bae127860405160405180910390a350565b6000815103610f03576040517f22ce3edd00000000000000000000000000000000000000000000000000000000815260040160405180910390fd5b8284600001906002811115610f1b57610f1a612255565b5b90816002811115610f2f57610f2e612255565b5b815250508184604001906000811115610f4b57610f4a612255565b5b90816000811115610f5f57610f5e612255565b5b8152505080846060018190525050505050565b610f7a61155f565b610f8881600001518361108b565b506000816020018181525050919050565b610fa68260038351611104565b610fbd8183600001516112ad90919063ffffffff16565b505050565b610fe460026005600660ff16901b1783600001516112c990919063ffffffff16565b5061100e8282604051602001610ffa919061248c565b604051602081830303815290604052611062565b5050565b61101d816004611333565b60018160200181815161103091906124a7565b9150818152505050565b611045816007611333565b60018160200181815161105891906124db565b9150818152505050565b61106f8260028351611104565b6110868183600001516112ad90919063ffffffff16565b505050565b61109361157f565b60006020836110a2919061253e565b146110ce576020826110b4919061253e565b60206110c091906124db565b826110cb91906124a7565b91505b8183602001818152505060405180845260008152828101602001818110156110f557600080fd5b80604052505082905092915050565b60178167ffffffffffffffff161161113f576111398160058460ff16901b60ff161784600001516112c990919063ffffffff16565b506112a8565b60ff8167ffffffffffffffff161161119d57611172601860058460ff16901b1784600001516112c990919063ffffffff16565b506111978167ffffffffffffffff16600185600001516113599092919063ffffffff16565b506112a7565b61ffff8167ffffffffffffffff16116111fc576111d1601960058460ff16901b1784600001516112c990919063ffffffff16565b506111f68167ffffffffffffffff16600285600001516113599092919063ffffffff16565b506112a6565b63ffffffff8167ffffffffffffffff161161125d57611232601a60058460ff16901b1784600001516112c990919063ffffffff16565b506112578167ffffffffffffffff16600485600001516113599092919063ffffffff16565b506112a5565b61127e601b60058460ff16901b1784600001516112c990919063ffffffff16565b506112a38167ffffffffffffffff16600885600001516113599092919063ffffffff16565b505b5b5b5b505050565b6112b561157f565b6112c1838384516113e6565b905092915050565b6112d161157f565b6000836000015151905060006001826112ea91906124a7565b90508460200151821061130e5761130d85600283611308919061256f565b6114c9565b5b84516020838201018581538151831115611326578282525b5050849250505092915050565b611354601f60058360ff16901b1783600001516112c990919063ffffffff16565b505050565b61136161157f565b600084600001515190506000818461137991906124a7565b9050856020015181111561139e5761139d86600283611398919061256f565b6114c9565b5b60006001856101006113b091906126e4565b6113ba91906124db565b9050865182810187831982511617815281518411156113d7578382525b50508693505050509392505050565b6113ee61157f565b82518211156113fc57600080fd5b600084600001515190506000838261141491906124a7565b905085602001518111156114395761143886600283611433919061256f565b6114c9565b5b60008087518051856020830101935080851115611454578482525b60208901925050505b6020861061149b578051825260208261147691906124a7565b915060208161148591906124a7565b905060208661149491906124db565b955061145d565b60006001876020036101000a0390508019825116818451168181178552505050879450505050509392505050565b6000826000015190506114dc838361108b565b506114e783826112ad565b50505050565b6040518060e001604052806000600281111561150c5761150b612255565b5b81526020016000600281111561152557611524612255565b5b815260200160008081111561153d5761153c612255565b5b8152602001606081526020016060815260200160608152602001606081525090565b604051806040016040528061157261157f565b8152602001600081525090565b604051806040016040528060608152602001600081525090565b6000604051905090565b600080fd5b600080fd5b6000819050919050565b6115c0816115ad565b81146115cb57600080fd5b50565b6000813590506115dd816115b7565b92915050565b600080fd5b600080fd5b6000601f19601f8301169050919050565b7f4e487b7100000000000000000000000000000000000000000000000000000000600052604160045260246000fd5b611636826115ed565b810181811067ffffffffffffffff82111715611655576116546115fe565b5b80604052505050565b6000611668611599565b9050611674828261162d565b919050565b600067ffffffffffffffff821115611694576116936115fe565b5b61169d826115ed565b9050602081019050919050565b82818337600083830152505050565b60006116cc6116c784611679565b61165e565b9050828152602081018484840111156116e8576116e76115e8565b5b6116f38482856116aa565b509392505050565b600082601f8301126117105761170f6115e3565b5b81356117208482602086016116b9565b91505092915050565b600080600060608486031215611742576117416115a3565b5b6000611750868287016115ce565b935050602084013567ffffffffffffffff811115611771576117706115a8565b5b61177d868287016116fb565b925050604084013567ffffffffffffffff81111561179e5761179d6115a8565b5b6117aa868287016116fb565b9150509250925092565b600081519050919050565b600082825260208201905092915050565b60005b838110156117ee5780820151818401526020810190506117d3565b60008484015250505050565b6000611805826117b4565b61180f81856117bf565b935061181f8185602086016117d0565b611828816115ed565b840191505092915050565b6000602082019050818103600083015261184d81846117fa565b905092915050565b600067ffffffffffffffff82169050919050565b61187281611855565b811461187d57600080fd5b50565b60008135905061188f81611869565b92915050565b600080fd5b600080fd5b60008083601f8401126118b5576118b46115e3565b5b8235905067ffffffffffffffff8111156118d2576118d1611895565b5b6020830191508360208202830111156118ee576118ed61189a565b5b9250929050565b60008060006040848603121561190e5761190d6115a3565b5b600061191c86828701611880565b935050602084013567ffffffffffffffff81111561193d5761193c6115a8565b5b6119498682870161189f565b92509250509250925092565b61195e816115ad565b82525050565b60006020820190506119796000830184611955565b92915050565b600081519050919050565b600082825260208201905092915050565b60006119a68261197f565b6119b0818561198a565b93506119c08185602086016117d0565b6119c9816115ed565b840191505092915050565b600060208201905081810360008301526119ee818461199b565b905092915050565b600073ffffffffffffffffffffffffffffffffffffffff82169050919050565b6000611a21826119f6565b9050919050565b611a3181611a16565b82525050565b6000602082019050611a4c6000830184611a28565b92915050565b611a5b81611a16565b8114611a6657600080fd5b50565b600081359050611a7881611a52565b92915050565b600060208284031215611a9457611a936115a3565b5b6000611aa284828501611a69565b91505092915050565b7f4e487b7100000000000000000000000000000000000000000000000000000000600052602260045260246000fd5b60006002820490506001821680611af257607f821691505b602082108103611b0557611b04611aab565b5b50919050565b600067ffffffffffffffff821115611b2657611b256115fe565b5b602082029050602081019050919050565b600067ffffffffffffffff821115611b5257611b516115fe565b5b611b5b826115ed565b9050602081019050919050565b6000611b7b611b7684611b37565b61165e565b905082815260208101848484011115611b9757611b966115e8565b5b611ba28482856116aa565b509392505050565b600082601f830112611bbf57611bbe6115e3565b5b8135611bcf848260208601611b68565b91505092915050565b6000611beb611be684611b0b565b61165e565b90508083825260208201905060208402830185811115611c0e57611c0d61189a565b5b835b81811015611c5557803567ffffffffffffffff811115611c3357611c326115e3565b5b808601611c408982611baa565b85526020850194505050602081019050611c10565b5050509392505050565b6000611c6c368484611bd8565b905092915050565b7f4d7573742062652070726f706f736564206f776e657200000000000000000000600082015250565b6000611caa60168361198a565b9150611cb582611c74565b602082019050919050565b60006020820190508181036000830152611cd981611c9d565b9050919050565b60008190508160005260206000209050919050565b60006020601f8301049050919050565b600082821b905092915050565b600060088302611d427fffffffffffffffffffffffffffffffffffffffffffffffffffffffffffffffff82611d05565b611d4c8683611d05565b95508019841693508086168417925050509392505050565b6000819050919050565b6000819050919050565b6000611d93611d8e611d8984611d64565b611d6e565b611d64565b9050919050565b6000819050919050565b611dad83611d78565b611dc1611db982611d9a565b848454611d12565b825550505050565b600090565b611dd6611dc9565b611de1818484611da4565b505050565b5b81811015611e0557611dfa600082611dce565b600181019050611de7565b5050565b601f821115611e4a57611e1b81611ce0565b611e2484611cf5565b81016020851015611e33578190505b611e47611e3f85611cf5565b830182611de6565b50505b505050565b600082821c905092915050565b6000611e6d60001984600802611e4f565b1980831691505092915050565b6000611e868383611e5c565b9150826002028217905092915050565b611e9f826117b4565b67ffffffffffffffff811115611eb857611eb76115fe565b5b611ec28254611ada565b611ecd828285611e09565b600060209050601f831160018114611f005760008415611eee578287015190505b611ef88582611e7a565b865550611f60565b601f198416611f0e86611ce0565b60005b82811015611f3657848901518255600182019150602085019450602081019050611f11565b86831015611f535784890151611f4f601f891682611e5c565b8355505b6001600288020188555050505b505050505050565b60008190508160005260206000209050919050565b601f821115611fbe57611f8f81611f68565b611f9884611cf5565b81016020851015611fa7578190505b611fbb611fb385611cf5565b830182611de6565b50505b505050565b611fcc8261197f565b67ffffffffffffffff811115611fe557611fe46115fe565b5b611fef8254611ada565b611ffa828285611f7d565b600060209050601f83116001811461202d576000841561201b578287015190505b6120258582611e7a565b86555061208d565b601f19841661203b86611f68565b60005b828110156120635784890151825560018201915060208501945060208101905061203e565b86831015612080578489015161207c601f891682611e5c565b8355505b6001600288020188555050505b505050505050565b600081546120a281611ada565b6120ac818661198a565b945060018216600081146120c757600181146120dd57612110565b60ff198316865281151560200286019350612110565b6120e685611f68565b60005b83811015612108578154818901526001820191506020810190506120e9565b808801955050505b50505092915050565b6000815461212681611ada565b61213081866117bf565b9450600182166000811461214b576001811461216157612194565b60ff198316865281151560200286019350612194565b61216a85611ce0565b60005b8381101561218c5781548189015260018201915060208101905061216d565b808801955050505b50505092915050565b600060608201905081810360008301526121b78186612095565b905081810360208301526121cb8185612119565b905081810360408301526121df8184612119565b9050949350505050565b7f4f6e6c792063616c6c61626c65206279206f776e657200000000000000000000600082015250565b600061221f60168361198a565b915061222a826121e9565b602082019050919050565b6000602082019050818103600083015261224e81612212565b9050919050565b7f4e487b7100000000000000000000000000000000000000000000000000000000600052602160045260246000fd5b7f4e487b7100000000000000000000000000000000000000000000000000000000600052603260045260246000fd5b7f4e487b7100000000000000000000000000000000000000000000000000000000600052601160045260246000fd5b60006122ed82611d64565b91507fffffffffffffffffffffffffffffffffffffffffffffffffffffffffffffffff820361231f5761231e6122b3565b5b600182019050919050565b61233381611855565b82525050565b600061ffff82169050919050565b61235081612339565b82525050565b600063ffffffff82169050919050565b61236f81612356565b82525050565b600060a08201905061238a600083018861232a565b818103602083015261239c81876117fa565b90506123ab6040830186612347565b6123b86060830185612366565b6123c56080830184611955565b9695505050505050565b6000815190506123de816115b7565b92915050565b6000602082840312156123fa576123f96115a3565b5b6000612408848285016123cf565b91505092915050565b7f43616e6e6f74207472616e7366657220746f2073656c66000000000000000000600082015250565b600061244760178361198a565b915061245282612411565b602082019050919050565b600060208201905081810360008301526124768161243a565b9050919050565b61248681611d64565b82525050565b60006020820190506124a1600083018461247d565b92915050565b60006124b282611d64565b91506124bd83611d64565b92508282019050808211156124d5576124d46122b3565b5b92915050565b60006124e682611d64565b91506124f183611d64565b9250828203905081811115612509576125086122b3565b5b92915050565b7f4e487b7100000000000000000000000000000000000000000000000000000000600052601260045260246000fd5b600061254982611d64565b915061255483611d64565b9250826125645761256361250f565b5b828206905092915050565b600061257a82611d64565b915061258583611d64565b925082820261259381611d64565b915082820484148315176125aa576125a96122b3565b5b5092915050565b60008160011c9050919050565b6000808291508390505b6001851115612608578086048111156125e4576125e36122b3565b5b60018516156125f35780820291505b8081029050612601856125b1565b94506125c8565b94509492505050565b60008261262157600190506126dd565b8161262f57600090506126dd565b8160018114612645576002811461264f5761267e565b60019150506126dd565b60ff841115612661576126606122b3565b5b8360020a915084821115612678576126776122b3565b5b506126dd565b5060208310610133831016604e8410600b84101617156126b35782820a9050838111156126ae576126ad6122b3565b5b6126dd565b6126c084848460016125be565b925090508184048111156126d7576126d66122b3565b5b81810290505b9392505050565b60006126ef82611d64565b91506126fa83611d64565b92506127277fffffffffffffffffffffffffffffffffffffffffffffffffffffffffffffffff8484612611565b90509291505056fea264697066735822122016b59ea93e3f0c5296a87c07ae198e52c5751ec0514ff0a8d3a78c70cce8438664736f6c6343000814003366756e6374696f6e20476574546f74616c456d706c6f796565732873747229207b20202020636f6e7374206c6f776572537472203d207374722e746f4c6f7765724361736528293b20202020202020202020202020202020202020202020202020206c65742073756d203d20303b202020202020666f7220286c65742069203d20303b2069203c206c6f7765725374722e6c656e6774683b20692b2b29207b2020202020202020696620286c6f7765725374725b695d203e3d20276127202626206c6f7765725374725b695d203c3d20277a2729207b20202020202020202020636f6e7374206368617256616c7565203d206c6f7765725374722e63686172436f64654174286929202d202761272e63686172436f64654174283029202b20313b202020202020202020206966202873756d202b206368617256616c7565203c3d2031303029207b20202020202020202020202073756d202b3d206368617256616c75653b202020202020202020207d20656c7365207b202020202020202020202020627265616b3b202020202020202020207d20202020202020207d2020202020207d20202020202072657475726e2073756d202a20313030303b202020207d2020202020202020202020206c657420636f6d70616e79446f6d61696e203d20617267735b305d2020202072657475726e2046756e6374696f6e732e656e636f646555696e7432353628476574546f74616c456d706c6f7965657328636f6d70616e79446f6d61696e29293b20202020",
    "linkReferences": {},
    "deployedLinkReferences": {}
}