{
    "_format": "hh-sol-artifact-1",
    "contractName": "CompanyBadge",
    "sourceName": "contracts/glassNft.sol",
    "abi": [
        {
            "inputs": [],
            "stateMutability": "nonpayable",
            "type": "constructor"
        },
        {
            "inputs": [
                {
                    "internalType": "address",
                    "name": "sender",
                    "type": "address"
                },
                {
                    "internalType": "uint256",
                    "name": "tokenId",
                    "type": "uint256"
                },
                {
                    "internalType": "address",
                    "name": "owner",
                    "type": "address"
                }
            ],
            "name": "ERC721IncorrectOwner",
            "type": "error"
        },
        {
            "inputs": [
                {
                    "internalType": "address",
                    "name": "operator",
                    "type": "address"
                },
                {
                    "internalType": "uint256",
                    "name": "tokenId",
                    "type": "uint256"
                }
            ],
            "name": "ERC721InsufficientApproval",
            "type": "error"
        },
        {
            "inputs": [
                {
                    "internalType": "address",
                    "name": "approver",
                    "type": "address"
                }
            ],
            "name": "ERC721InvalidApprover",
            "type": "error"
        },
        {
            "inputs": [
                {
                    "internalType": "address",
                    "name": "operator",
                    "type": "address"
                }
            ],
            "name": "ERC721InvalidOperator",
            "type": "error"
        },
        {
            "inputs": [
                {
                    "internalType": "address",
                    "name": "owner",
                    "type": "address"
                }
            ],
            "name": "ERC721InvalidOwner",
            "type": "error"
        },
        {
            "inputs": [
                {
                    "internalType": "address",
                    "name": "receiver",
                    "type": "address"
                }
            ],
            "name": "ERC721InvalidReceiver",
            "type": "error"
        },
        {
            "inputs": [
                {
                    "internalType": "address",
                    "name": "sender",
                    "type": "address"
                }
            ],
            "name": "ERC721InvalidSender",
            "type": "error"
        },
        {
            "inputs": [
                {
                    "internalType": "uint256",
                    "name": "tokenId",
                    "type": "uint256"
                }
            ],
            "name": "ERC721NonexistentToken",
            "type": "error"
        },
        {
            "inputs": [
                {
                    "internalType": "address",
                    "name": "owner",
                    "type": "address"
                }
            ],
            "name": "OwnableInvalidOwner",
            "type": "error"
        },
        {
            "inputs": [
                {
                    "internalType": "address",
                    "name": "account",
                    "type": "address"
                }
            ],
            "name": "OwnableUnauthorizedAccount",
            "type": "error"
        },
        {
            "anonymous": false,
            "inputs": [
                {
                    "indexed": true,
                    "internalType": "address",
                    "name": "owner",
                    "type": "address"
                },
                {
                    "indexed": true,
                    "internalType": "address",
                    "name": "approved",
                    "type": "address"
                },
                {
                    "indexed": true,
                    "internalType": "uint256",
                    "name": "tokenId",
                    "type": "uint256"
                }
            ],
            "name": "Approval",
            "type": "event"
        },
        {
            "anonymous": false,
            "inputs": [
                {
                    "indexed": true,
                    "internalType": "address",
                    "name": "owner",
                    "type": "address"
                },
                {
                    "indexed": true,
                    "internalType": "address",
                    "name": "operator",
                    "type": "address"
                },
                {
                    "indexed": false,
                    "internalType": "bool",
                    "name": "approved",
                    "type": "bool"
                }
            ],
            "name": "ApprovalForAll",
            "type": "event"
        },
        {
            "anonymous": false,
            "inputs": [
                {
                    "indexed": true,
                    "internalType": "address",
                    "name": "previousOwner",
                    "type": "address"
                },
                {
                    "indexed": true,
                    "internalType": "address",
                    "name": "newOwner",
                    "type": "address"
                }
            ],
            "name": "OwnershipTransferred",
            "type": "event"
        },
        {
            "anonymous": false,
            "inputs": [
                {
                    "indexed": true,
                    "internalType": "address",
                    "name": "from",
                    "type": "address"
                },
                {
                    "indexed": true,
                    "internalType": "address",
                    "name": "to",
                    "type": "address"
                },
                {
                    "indexed": true,
                    "internalType": "uint256",
                    "name": "tokenId",
                    "type": "uint256"
                }
            ],
            "name": "Transfer",
            "type": "event"
        },
        {
            "inputs": [
                {
                    "internalType": "address",
                    "name": "to",
                    "type": "address"
                },
                {
                    "internalType": "uint256",
                    "name": "tokenId",
                    "type": "uint256"
                }
            ],
            "name": "approve",
            "outputs": [],
            "stateMutability": "nonpayable",
            "type": "function"
        },
        {
            "inputs": [
                {
                    "internalType": "uint256",
                    "name": "",
                    "type": "uint256"
                }
            ],
            "name": "badges",
            "outputs": [
                {
                    "internalType": "string",
                    "name": "campanyDomain",
                    "type": "string"
                },
                {
                    "internalType": "bytes32",
                    "name": "usernameHash",
                    "type": "bytes32"
                },
                {
                    "internalType": "address",
                    "name": "owner",
                    "type": "address"
                }
            ],
            "stateMutability": "view",
            "type": "function"
        },
        {
            "inputs": [
                {
                    "internalType": "address",
                    "name": "owner",
                    "type": "address"
                }
            ],
            "name": "balanceOf",
            "outputs": [
                {
                    "internalType": "uint256",
                    "name": "",
                    "type": "uint256"
                }
            ],
            "stateMutability": "view",
            "type": "function"
        },
        {
            "inputs": [
                {
                    "internalType": "uint256",
                    "name": "tokenId",
                    "type": "uint256"
                }
            ],
            "name": "getApproved",
            "outputs": [
                {
                    "internalType": "address",
                    "name": "",
                    "type": "address"
                }
            ],
            "stateMutability": "view",
            "type": "function"
        },
        {
            "inputs": [
                {
                    "internalType": "address",
                    "name": "owner",
                    "type": "address"
                },
                {
                    "internalType": "address",
                    "name": "operator",
                    "type": "address"
                }
            ],
            "name": "isApprovedForAll",
            "outputs": [
                {
                    "internalType": "bool",
                    "name": "",
                    "type": "bool"
                }
            ],
            "stateMutability": "view",
            "type": "function"
        },
        {
            "inputs": [],
            "name": "name",
            "outputs": [
                {
                    "internalType": "string",
                    "name": "",
                    "type": "string"
                }
            ],
            "stateMutability": "view",
            "type": "function"
        },
        {
            "inputs": [],
            "name": "owner",
            "outputs": [
                {
                    "internalType": "address",
                    "name": "",
                    "type": "address"
                }
            ],
            "stateMutability": "view",
            "type": "function"
        },
        {
            "inputs": [
                {
                    "internalType": "uint256",
                    "name": "tokenId",
                    "type": "uint256"
                }
            ],
            "name": "ownerOf",
            "outputs": [
                {
                    "internalType": "address",
                    "name": "",
                    "type": "address"
                }
            ],
            "stateMutability": "view",
            "type": "function"
        },
        {
            "inputs": [],
            "name": "renounceOwnership",
            "outputs": [],
            "stateMutability": "nonpayable",
            "type": "function"
        },
        {
            "inputs": [
                {
                    "internalType": "string",
                    "name": "companyDomain",
                    "type": "string"
                },
                {
                    "internalType": "bytes32",
                    "name": "usernameHash",
                    "type": "bytes32"
                }
            ],
            "name": "safeMint",
            "outputs": [],
            "stateMutability": "nonpayable",
            "type": "function"
        },
        {
            "inputs": [
                {
                    "internalType": "address",
                    "name": "from",
                    "type": "address"
                },
                {
                    "internalType": "address",
                    "name": "to",
                    "type": "address"
                },
                {
                    "internalType": "uint256",
                    "name": "tokenId",
                    "type": "uint256"
                }
            ],
            "name": "safeTransferFrom",
            "outputs": [],
            "stateMutability": "nonpayable",
            "type": "function"
        },
        {
            "inputs": [
                {
                    "internalType": "address",
                    "name": "from",
                    "type": "address"
                },
                {
                    "internalType": "address",
                    "name": "to",
                    "type": "address"
                },
                {
                    "internalType": "uint256",
                    "name": "tokenId",
                    "type": "uint256"
                },
                {
                    "internalType": "bytes",
                    "name": "data",
                    "type": "bytes"
                }
            ],
            "name": "safeTransferFrom",
            "outputs": [],
            "stateMutability": "nonpayable",
            "type": "function"
        },
        {
            "inputs": [
                {
                    "internalType": "address",
                    "name": "operator",
                    "type": "address"
                },
                {
                    "internalType": "bool",
                    "name": "approved",
                    "type": "bool"
                }
            ],
            "name": "setApprovalForAll",
            "outputs": [],
            "stateMutability": "nonpayable",
            "type": "function"
        },
        {
            "inputs": [
                {
                    "internalType": "bytes4",
                    "name": "interfaceId",
                    "type": "bytes4"
                }
            ],
            "name": "supportsInterface",
            "outputs": [
                {
                    "internalType": "bool",
                    "name": "",
                    "type": "bool"
                }
            ],
            "stateMutability": "view",
            "type": "function"
        },
        {
            "inputs": [],
            "name": "symbol",
            "outputs": [
                {
                    "internalType": "string",
                    "name": "",
                    "type": "string"
                }
            ],
            "stateMutability": "view",
            "type": "function"
        },
        {
            "inputs": [
                {
                    "internalType": "uint256",
                    "name": "tokenId",
                    "type": "uint256"
                }
            ],
            "name": "tokenURI",
            "outputs": [
                {
                    "internalType": "string",
                    "name": "",
                    "type": "string"
                }
            ],
            "stateMutability": "view",
            "type": "function"
        },
        {
            "inputs": [
                {
                    "internalType": "address",
                    "name": "from",
                    "type": "address"
                },
                {
                    "internalType": "address",
                    "name": "to",
                    "type": "address"
                },
                {
                    "internalType": "uint256",
                    "name": "tokenId",
                    "type": "uint256"
                }
            ],
            "name": "transferFrom",
            "outputs": [],
            "stateMutability": "nonpayable",
            "type": "function"
        },
        {
            "inputs": [
                {
                    "internalType": "address",
                    "name": "newOwner",
                    "type": "address"
                }
            ],
            "name": "transferOwnership",
            "outputs": [],
            "stateMutability": "nonpayable",
            "type": "function"
        }
    ],
    "bytecode": "0x60806040523480156200001157600080fd5b50336040518060400160405280600c81526020017f43616d70616e79426164676500000000000000000000000000000000000000008152506040518060400160405280600581526020017f4241444745000000000000000000000000000000000000000000000000000000815250816000908162000090919062000472565b508060019081620000a2919062000472565b505050600073ffffffffffffffffffffffffffffffffffffffff168173ffffffffffffffffffffffffffffffffffffffff16036200011a5760006040517f1e4fbdf70000000000000000000000000000000000000000000000000000000081526004016200011191906200059e565b60405180910390fd5b6200012b816200013260201b60201c565b50620005bb565b6000600660009054906101000a900473ffffffffffffffffffffffffffffffffffffffff16905081600660006101000a81548173ffffffffffffffffffffffffffffffffffffffff021916908373ffffffffffffffffffffffffffffffffffffffff1602179055508173ffffffffffffffffffffffffffffffffffffffff168173ffffffffffffffffffffffffffffffffffffffff167f8be0079c531659141344cd1fd0a4f28419497f9722a3daafe3b4186f6b6457e060405160405180910390a35050565b600081519050919050565b7f4e487b7100000000000000000000000000000000000000000000000000000000600052604160045260246000fd5b7f4e487b7100000000000000000000000000000000000000000000000000000000600052602260045260246000fd5b600060028204905060018216806200027a57607f821691505b60208210810362000290576200028f62000232565b5b50919050565b60008190508160005260206000209050919050565b60006020601f8301049050919050565b600082821b905092915050565b600060088302620002fa7fffffffffffffffffffffffffffffffffffffffffffffffffffffffffffffffff82620002bb565b620003068683620002bb565b95508019841693508086168417925050509392505050565b6000819050919050565b6000819050919050565b6000620003536200034d62000347846200031e565b62000328565b6200031e565b9050919050565b6000819050919050565b6200036f8362000332565b620003876200037e826200035a565b848454620002c8565b825550505050565b600090565b6200039e6200038f565b620003ab81848462000364565b505050565b5b81811015620003d357620003c760008262000394565b600181019050620003b1565b5050565b601f8211156200042257620003ec8162000296565b620003f784620002ab565b8101602085101562000407578190505b6200041f6200041685620002ab565b830182620003b0565b50505b505050565b600082821c905092915050565b6000620004476000198460080262000427565b1980831691505092915050565b600062000462838362000434565b9150826002028217905092915050565b6200047d82620001f8565b67ffffffffffffffff81111562000499576200049862000203565b5b620004a5825462000261565b620004b2828285620003d7565b600060209050601f831160018114620004ea5760008415620004d5578287015190505b620004e1858262000454565b86555062000551565b601f198416620004fa8662000296565b60005b828110156200052457848901518255600182019150602085019450602081019050620004fd565b8683101562000544578489015162000540601f89168262000434565b8355505b6001600288020188555050505b505050505050565b600073ffffffffffffffffffffffffffffffffffffffff82169050919050565b6000620005868262000559565b9050919050565b620005988162000579565b82525050565b6000602082019050620005b560008301846200058d565b92915050565b61285980620005cb6000396000f3fe608060405234801561001057600080fd5b50600436106101165760003560e01c80638da5cb5b116100a2578063b88d4fde11610071578063b88d4fde146102e1578063c87b56dd146102fd578063e985e9c51461032d578063ee19d3461461035d578063f2fde38b1461037957610116565b80638da5cb5b1461025757806395d89b411461027557806398e36d8b14610293578063a22cb465146102c557610116565b806323b872dd116100e957806323b872dd146101b557806342842e0e146101d15780636352211e146101ed57806370a082311461021d578063715018a61461024d57610116565b806301ffc9a71461011b57806306fdde031461014b578063081812fc14610169578063095ea7b314610199575b600080fd5b61013560048036038101906101309190611b9b565b610395565b6040516101429190611be3565b60405180910390f35b610153610477565b6040516101609190611c8e565b60405180910390f35b610183600480360381019061017e9190611ce6565b610509565b6040516101909190611d54565b60405180910390f35b6101b360048036038101906101ae9190611d9b565b610525565b005b6101cf60048036038101906101ca9190611ddb565b61053b565b005b6101eb60048036038101906101e69190611ddb565b61063d565b005b61020760048036038101906102029190611ce6565b61065d565b6040516102149190611d54565b60405180910390f35b61023760048036038101906102329190611e2e565b61066f565b6040516102449190611e6a565b60405180910390f35b610255610729565b005b61025f61073d565b60405161026c9190611d54565b60405180910390f35b61027d610767565b60405161028a9190611c8e565b60405180910390f35b6102ad60048036038101906102a89190611ce6565b6107f9565b6040516102bc93929190611e9e565b60405180910390f35b6102df60048036038101906102da9190611f08565b6108cb565b005b6102fb60048036038101906102f6919061207d565b6108e1565b005b61031760048036038101906103129190611ce6565b6108fe565b6040516103249190611c8e565b60405180910390f35b61034760048036038101906103429190612100565b610967565b6040516103549190611be3565b60405180910390f35b610377600480360381019061037291906121cc565b6109fb565b005b610393600480360381019061038e9190611e2e565b610be1565b005b60007f80ac58cd000000000000000000000000000000000000000000000000000000007bffffffffffffffffffffffffffffffffffffffffffffffffffffffff1916827bffffffffffffffffffffffffffffffffffffffffffffffffffffffff1916148061046057507f5b5e139f000000000000000000000000000000000000000000000000000000007bffffffffffffffffffffffffffffffffffffffffffffffffffffffff1916827bffffffffffffffffffffffffffffffffffffffffffffffffffffffff1916145b80610470575061046f82610c67565b5b9050919050565b6060600080546104869061225b565b80601f01602080910402602001604051908101604052809291908181526020018280546104b29061225b565b80156104ff5780601f106104d4576101008083540402835291602001916104ff565b820191906000526020600020905b8154815290600101906020018083116104e257829003601f168201915b5050505050905090565b600061051482610cd1565b5061051e82610d59565b9050919050565b6105378282610532610d96565b610d9e565b5050565b600073ffffffffffffffffffffffffffffffffffffffff168273ffffffffffffffffffffffffffffffffffffffff16036105ad5760006040517f64a0ae920000000000000000000000000000000000000000000000000000000081526004016105a49190611d54565b60405180910390fd5b60006105c183836105bc610d96565b610db0565b90508373ffffffffffffffffffffffffffffffffffffffff168173ffffffffffffffffffffffffffffffffffffffff1614610637578382826040517f64283d7b00000000000000000000000000000000000000000000000000000000815260040161062e9392919061228c565b60405180910390fd5b50505050565b610658838383604051806020016040528060008152506108e1565b505050565b600061066882610cd1565b9050919050565b60008073ffffffffffffffffffffffffffffffffffffffff168273ffffffffffffffffffffffffffffffffffffffff16036106e25760006040517f89c62b640000000000000000000000000000000000000000000000000000000081526004016106d99190611d54565b60405180910390fd5b600360008373ffffffffffffffffffffffffffffffffffffffff1673ffffffffffffffffffffffffffffffffffffffff168152602001908152602001600020549050919050565b610731610fca565b61073b6000611051565b565b6000600660009054906101000a900473ffffffffffffffffffffffffffffffffffffffff16905090565b6060600180546107769061225b565b80601f01602080910402602001604051908101604052809291908181526020018280546107a29061225b565b80156107ef5780601f106107c4576101008083540402835291602001916107ef565b820191906000526020600020905b8154815290600101906020018083116107d257829003601f168201915b5050505050905090565b600960205280600052604060002060009150905080600001805461081c9061225b565b80601f01602080910402602001604051908101604052809291908181526020018280546108489061225b565b80156108955780601f1061086a57610100808354040283529160200191610895565b820191906000526020600020905b81548152906001019060200180831161087857829003601f168201915b5050505050908060010154908060020160009054906101000a900473ffffffffffffffffffffffffffffffffffffffff16905083565b6108dd6108d6610d96565b8383611117565b5050565b6108ec84848461053b565b6108f884848484611286565b50505050565b606061090982610cd1565b50600061091461143d565b90506000815111610934576040518060200160405280600081525061095f565b8061093e84611454565b60405160200161094f9291906122ff565b6040516020818303038152906040525b915050919050565b6000600560008473ffffffffffffffffffffffffffffffffffffffff1673ffffffffffffffffffffffffffffffffffffffff16815260200190815260200160002060008373ffffffffffffffffffffffffffffffffffffffff1673ffffffffffffffffffffffffffffffffffffffff16815260200190815260200160002060009054906101000a900460ff16905092915050565b60088383604051610a0d929190612348565b9081526020016040518091039020600082815260200190815260200160002060009054906101000a900460ff1615610a7a576040517f08c379a0000000000000000000000000000000000000000000000000000000008152600401610a71906123d3565b60405180910390fd5b600060076000815480929190610a8f90612422565b919050559050610a9f3382611522565b600160088585604051610ab3929190612348565b9081526020016040518091039020600084815260200190815260200160002060006101000a81548160ff021916908315150217905550604051806060016040528085858080601f016020809104026020016040519081016040528093929190818152602001838380828437600081840152601f19601f8201169050808301925050505050505081526020018381526020013373ffffffffffffffffffffffffffffffffffffffff16815250600960008381526020019081526020016000206000820151816000019081610b869190612616565b506020820151816001015560408201518160020160006101000a81548173ffffffffffffffffffffffffffffffffffffffff021916908373ffffffffffffffffffffffffffffffffffffffff16021790555090505050505050565b610be9610fca565b600073ffffffffffffffffffffffffffffffffffffffff168173ffffffffffffffffffffffffffffffffffffffff1603610c5b5760006040517f1e4fbdf7000000000000000000000000000000000000000000000000000000008152600401610c529190611d54565b60405180910390fd5b610c6481611051565b50565b60007f01ffc9a7000000000000000000000000000000000000000000000000000000007bffffffffffffffffffffffffffffffffffffffffffffffffffffffff1916827bffffffffffffffffffffffffffffffffffffffffffffffffffffffff1916149050919050565b600080610cdd83611540565b9050600073ffffffffffffffffffffffffffffffffffffffff168173ffffffffffffffffffffffffffffffffffffffff1603610d5057826040517f7e273289000000000000000000000000000000000000000000000000000000008152600401610d479190611e6a565b60405180910390fd5b80915050919050565b60006004600083815260200190815260200160002060009054906101000a900473ffffffffffffffffffffffffffffffffffffffff169050919050565b600033905090565b610dab838383600161157d565b505050565b600080610dbc84611540565b9050600073ffffffffffffffffffffffffffffffffffffffff168373ffffffffffffffffffffffffffffffffffffffff1614610dfe57610dfd818486611742565b5b600073ffffffffffffffffffffffffffffffffffffffff168173ffffffffffffffffffffffffffffffffffffffff1614610e8f57610e4060008560008061157d565b6001600360008373ffffffffffffffffffffffffffffffffffffffff1673ffffffffffffffffffffffffffffffffffffffff168152602001908152602001600020600082825403925050819055505b600073ffffffffffffffffffffffffffffffffffffffff168573ffffffffffffffffffffffffffffffffffffffff1614610f12576001600360008773ffffffffffffffffffffffffffffffffffffffff1673ffffffffffffffffffffffffffffffffffffffff168152602001908152602001600020600082825401925050819055505b846002600086815260200190815260200160002060006101000a81548173ffffffffffffffffffffffffffffffffffffffff021916908373ffffffffffffffffffffffffffffffffffffffff160217905550838573ffffffffffffffffffffffffffffffffffffffff168273ffffffffffffffffffffffffffffffffffffffff167fddf252ad1be2c89b69c2b068fc378daa952ba7f163c4a11628f55a4df523b3ef60405160405180910390a4809150509392505050565b610fd2610d96565b73ffffffffffffffffffffffffffffffffffffffff16610ff061073d565b73ffffffffffffffffffffffffffffffffffffffff161461104f57611013610d96565b6040517f118cdaa70000000000000000000000000000000000000000000000000000000081526004016110469190611d54565b60405180910390fd5b565b6000600660009054906101000a900473ffffffffffffffffffffffffffffffffffffffff16905081600660006101000a81548173ffffffffffffffffffffffffffffffffffffffff021916908373ffffffffffffffffffffffffffffffffffffffff1602179055508173ffffffffffffffffffffffffffffffffffffffff168173ffffffffffffffffffffffffffffffffffffffff167f8be0079c531659141344cd1fd0a4f28419497f9722a3daafe3b4186f6b6457e060405160405180910390a35050565b600073ffffffffffffffffffffffffffffffffffffffff168273ffffffffffffffffffffffffffffffffffffffff160361118857816040517f5b08ba1800000000000000000000000000000000000000000000000000000000815260040161117f9190611d54565b60405180910390fd5b80600560008573ffffffffffffffffffffffffffffffffffffffff1673ffffffffffffffffffffffffffffffffffffffff16815260200190815260200160002060008473ffffffffffffffffffffffffffffffffffffffff1673ffffffffffffffffffffffffffffffffffffffff16815260200190815260200160002060006101000a81548160ff0219169083151502179055508173ffffffffffffffffffffffffffffffffffffffff168373ffffffffffffffffffffffffffffffffffffffff167f17307eab39ab6107e8899845ad3d59bd9653f200f220920489ca2b5937696c31836040516112799190611be3565b60405180910390a3505050565b60008373ffffffffffffffffffffffffffffffffffffffff163b1115611437578273ffffffffffffffffffffffffffffffffffffffff1663150b7a026112ca610d96565b8685856040518563ffffffff1660e01b81526004016112ec949392919061273d565b6020604051808303816000875af192505050801561132857506040513d601f19601f82011682018060405250810190611325919061279e565b60015b6113ac573d8060008114611358576040519150601f19603f3d011682016040523d82523d6000602084013e61135d565b606091505b5060008151036113a457836040517f64a0ae9200000000000000000000000000000000000000000000000000000000815260040161139b9190611d54565b60405180910390fd5b805181602001fd5b63150b7a0260e01b7bffffffffffffffffffffffffffffffffffffffffffffffffffffffff1916817bffffffffffffffffffffffffffffffffffffffffffffffffffffffff19161461143557836040517f64a0ae9200000000000000000000000000000000000000000000000000000000815260040161142c9190611d54565b60405180910390fd5b505b50505050565b606060405180602001604052806000815250905090565b60606000600161146384611806565b01905060008167ffffffffffffffff81111561148257611481611f52565b5b6040519080825280601f01601f1916602001820160405280156114b45781602001600182028036833780820191505090505b509050600082602001820190505b600115611517578080600190039150507f3031323334353637383961626364656600000000000000000000000000000000600a86061a8153600a858161150b5761150a6127cb565b5b049450600085036114c2575b819350505050919050565b61153c828260405180602001604052806000815250611959565b5050565b60006002600083815260200190815260200160002060009054906101000a900473ffffffffffffffffffffffffffffffffffffffff169050919050565b80806115b65750600073ffffffffffffffffffffffffffffffffffffffff168273ffffffffffffffffffffffffffffffffffffffff1614155b156116ea5760006115c684610cd1565b9050600073ffffffffffffffffffffffffffffffffffffffff168373ffffffffffffffffffffffffffffffffffffffff161415801561163157508273ffffffffffffffffffffffffffffffffffffffff168173ffffffffffffffffffffffffffffffffffffffff1614155b801561164457506116428184610967565b155b1561168657826040517fa9fbf51f00000000000000000000000000000000000000000000000000000000815260040161167d9190611d54565b60405180910390fd5b81156116e857838573ffffffffffffffffffffffffffffffffffffffff168273ffffffffffffffffffffffffffffffffffffffff167f8c5be1e5ebec7d5bd14f71427d1e84f3dd0314c0f7b2291e5b200ac8c7c3b92560405160405180910390a45b505b836004600085815260200190815260200160002060006101000a81548173ffffffffffffffffffffffffffffffffffffffff021916908373ffffffffffffffffffffffffffffffffffffffff16021790555050505050565b61174d838383611975565b61180157600073ffffffffffffffffffffffffffffffffffffffff168373ffffffffffffffffffffffffffffffffffffffff16036117c257806040517f7e2732890000000000000000000000000000000000000000000000000000000081526004016117b99190611e6a565b60405180910390fd5b81816040517f177e802f0000000000000000000000000000000000000000000000000000000081526004016117f89291906127fa565b60405180910390fd5b505050565b600080600090507a184f03e93ff9f4daa797ed6e38ed64bf6a1f0100000000000000008310611864577a184f03e93ff9f4daa797ed6e38ed64bf6a1f010000000000000000838161185a576118596127cb565b5b0492506040810190505b6d04ee2d6d415b85acef810000000083106118a1576d04ee2d6d415b85acef81000000008381611897576118966127cb565b5b0492506020810190505b662386f26fc1000083106118d057662386f26fc1000083816118c6576118c56127cb565b5b0492506010810190505b6305f5e10083106118f9576305f5e10083816118ef576118ee6127cb565b5b0492506008810190505b612710831061191e576127108381611914576119136127cb565b5b0492506004810190505b606483106119415760648381611937576119366127cb565b5b0492506002810190505b600a8310611950576001810190505b80915050919050565b6119638383611a36565b6119706000848484611286565b505050565b60008073ffffffffffffffffffffffffffffffffffffffff168373ffffffffffffffffffffffffffffffffffffffff1614158015611a2d57508273ffffffffffffffffffffffffffffffffffffffff168473ffffffffffffffffffffffffffffffffffffffff1614806119ee57506119ed8484610967565b5b80611a2c57508273ffffffffffffffffffffffffffffffffffffffff16611a1483610d59565b73ffffffffffffffffffffffffffffffffffffffff16145b5b90509392505050565b600073ffffffffffffffffffffffffffffffffffffffff168273ffffffffffffffffffffffffffffffffffffffff1603611aa85760006040517f64a0ae92000000000000000000000000000000000000000000000000000000008152600401611a9f9190611d54565b60405180910390fd5b6000611ab683836000610db0565b9050600073ffffffffffffffffffffffffffffffffffffffff168173ffffffffffffffffffffffffffffffffffffffff1614611b2a5760006040517f73c6ac6e000000000000000000000000000000000000000000000000000000008152600401611b219190611d54565b60405180910390fd5b505050565b6000604051905090565b600080fd5b600080fd5b60007fffffffff0000000000000000000000000000000000000000000000000000000082169050919050565b611b7881611b43565b8114611b8357600080fd5b50565b600081359050611b9581611b6f565b92915050565b600060208284031215611bb157611bb0611b39565b5b6000611bbf84828501611b86565b91505092915050565b60008115159050919050565b611bdd81611bc8565b82525050565b6000602082019050611bf86000830184611bd4565b92915050565b600081519050919050565b600082825260208201905092915050565b60005b83811015611c38578082015181840152602081019050611c1d565b60008484015250505050565b6000601f19601f8301169050919050565b6000611c6082611bfe565b611c6a8185611c09565b9350611c7a818560208601611c1a565b611c8381611c44565b840191505092915050565b60006020820190508181036000830152611ca88184611c55565b905092915050565b6000819050919050565b611cc381611cb0565b8114611cce57600080fd5b50565b600081359050611ce081611cba565b92915050565b600060208284031215611cfc57611cfb611b39565b5b6000611d0a84828501611cd1565b91505092915050565b600073ffffffffffffffffffffffffffffffffffffffff82169050919050565b6000611d3e82611d13565b9050919050565b611d4e81611d33565b82525050565b6000602082019050611d696000830184611d45565b92915050565b611d7881611d33565b8114611d8357600080fd5b50565b600081359050611d9581611d6f565b92915050565b60008060408385031215611db257611db1611b39565b5b6000611dc085828601611d86565b9250506020611dd185828601611cd1565b9150509250929050565b600080600060608486031215611df457611df3611b39565b5b6000611e0286828701611d86565b9350506020611e1386828701611d86565b9250506040611e2486828701611cd1565b9150509250925092565b600060208284031215611e4457611e43611b39565b5b6000611e5284828501611d86565b91505092915050565b611e6481611cb0565b82525050565b6000602082019050611e7f6000830184611e5b565b92915050565b6000819050919050565b611e9881611e85565b82525050565b60006060820190508181036000830152611eb88186611c55565b9050611ec76020830185611e8f565b611ed46040830184611d45565b949350505050565b611ee581611bc8565b8114611ef057600080fd5b50565b600081359050611f0281611edc565b92915050565b60008060408385031215611f1f57611f1e611b39565b5b6000611f2d85828601611d86565b9250506020611f3e85828601611ef3565b9150509250929050565b600080fd5b600080fd5b7f4e487b7100000000000000000000000000000000000000000000000000000000600052604160045260246000fd5b611f8a82611c44565b810181811067ffffffffffffffff82111715611fa957611fa8611f52565b5b80604052505050565b6000611fbc611b2f565b9050611fc88282611f81565b919050565b600067ffffffffffffffff821115611fe857611fe7611f52565b5b611ff182611c44565b9050602081019050919050565b82818337600083830152505050565b600061202061201b84611fcd565b611fb2565b90508281526020810184848401111561203c5761203b611f4d565b5b612047848285611ffe565b509392505050565b600082601f83011261206457612063611f48565b5b813561207484826020860161200d565b91505092915050565b6000806000806080858703121561209757612096611b39565b5b60006120a587828801611d86565b94505060206120b687828801611d86565b93505060406120c787828801611cd1565b925050606085013567ffffffffffffffff8111156120e8576120e7611b3e565b5b6120f48782880161204f565b91505092959194509250565b6000806040838503121561211757612116611b39565b5b600061212585828601611d86565b925050602061213685828601611d86565b9150509250929050565b600080fd5b600080fd5b60008083601f8401126121605761215f611f48565b5b8235905067ffffffffffffffff81111561217d5761217c612140565b5b60208301915083600182028301111561219957612198612145565b5b9250929050565b6121a981611e85565b81146121b457600080fd5b50565b6000813590506121c6816121a0565b92915050565b6000806000604084860312156121e5576121e4611b39565b5b600084013567ffffffffffffffff81111561220357612202611b3e565b5b61220f8682870161214a565b93509350506020612222868287016121b7565b9150509250925092565b7f4e487b7100000000000000000000000000000000000000000000000000000000600052602260045260246000fd5b6000600282049050600182168061227357607f821691505b6020821081036122865761228561222c565b5b50919050565b60006060820190506122a16000830186611d45565b6122ae6020830185611e5b565b6122bb6040830184611d45565b949350505050565b600081905092915050565b60006122d982611bfe565b6122e381856122c3565b93506122f3818560208601611c1a565b80840191505092915050565b600061230b82856122ce565b915061231782846122ce565b91508190509392505050565b600061232f83856122c3565b935061233c838584611ffe565b82840190509392505050565b6000612355828486612323565b91508190509392505050565b7f546f6b656e20616c7265616479206d696e74656420666f72207468697320757360008201527f657220616e6420646f6d61696e00000000000000000000000000000000000000602082015250565b60006123bd602d83611c09565b91506123c882612361565b604082019050919050565b600060208201905081810360008301526123ec816123b0565b9050919050565b7f4e487b7100000000000000000000000000000000000000000000000000000000600052601160045260246000fd5b600061242d82611cb0565b91507fffffffffffffffffffffffffffffffffffffffffffffffffffffffffffffffff820361245f5761245e6123f3565b5b600182019050919050565b60008190508160005260206000209050919050565b60006020601f8301049050919050565b600082821b905092915050565b6000600883026124cc7fffffffffffffffffffffffffffffffffffffffffffffffffffffffffffffffff8261248f565b6124d6868361248f565b95508019841693508086168417925050509392505050565b6000819050919050565b600061251361250e61250984611cb0565b6124ee565b611cb0565b9050919050565b6000819050919050565b61252d836124f8565b6125416125398261251a565b84845461249c565b825550505050565b600090565b612556612549565b612561818484612524565b505050565b5b818110156125855761257a60008261254e565b600181019050612567565b5050565b601f8211156125ca5761259b8161246a565b6125a48461247f565b810160208510156125b3578190505b6125c76125bf8561247f565b830182612566565b50505b505050565b600082821c905092915050565b60006125ed600019846008026125cf565b1980831691505092915050565b600061260683836125dc565b9150826002028217905092915050565b61261f82611bfe565b67ffffffffffffffff81111561263857612637611f52565b5b612642825461225b565b61264d828285612589565b600060209050601f831160018114612680576000841561266e578287015190505b61267885826125fa565b8655506126e0565b601f19841661268e8661246a565b60005b828110156126b657848901518255600182019150602085019450602081019050612691565b868310156126d357848901516126cf601f8916826125dc565b8355505b6001600288020188555050505b505050505050565b600081519050919050565b600082825260208201905092915050565b600061270f826126e8565b61271981856126f3565b9350612729818560208601611c1a565b61273281611c44565b840191505092915050565b60006080820190506127526000830187611d45565b61275f6020830186611d45565b61276c6040830185611e5b565b818103606083015261277e8184612704565b905095945050505050565b60008151905061279881611b6f565b92915050565b6000602082840312156127b4576127b3611b39565b5b60006127c284828501612789565b91505092915050565b7f4e487b7100000000000000000000000000000000000000000000000000000000600052601260045260246000fd5b600060408201905061280f6000830185611d45565b61281c6020830184611e5b565b939250505056fea26469706673582212207cf58ae6abb5d606e2369551c733fe22277bf953fe60c7b9ee142d72430773ee64736f6c63430008140033",
    "linkReferences": {},
    "deployedLinkReferences": {}
}