{
  "_format": "hh-sol-artifact-1",
  "contractName": "Glasschain",
  "sourceName": "contracts/Glasschain.sol",
  "abi": [
    {
      "inputs": [],
      "stateMutability": "nonpayable",
      "type": "constructor"
    },
    {
      "inputs": [
        {
          "internalType": "uint8",
          "name": "ratingScore",
          "type": "uint8"
        },
        {
          "internalType": "string",
          "name": "companyDomain",
          "type": "string"
        },
        {
          "internalType": "string",
          "name": "ipfsCommentHash",
          "type": "string"
        }
      ],
      "name": "addReview",
      "outputs": [],
      "stateMutability": "nonpayable",
      "type": "function"
    },
    {
      "inputs": [
        {
          "internalType": "uint256",
          "name": "",
          "type": "uint256"
        }
      ],
      "name": "companyIds",
      "outputs": [
        {
          "internalType": "bytes32",
          "name": "",
          "type": "bytes32"
        }
      ],
      "stateMutability": "view",
      "type": "function"
    },
    {
      "inputs": [
        {
          "internalType": "bytes32",
          "name": "",
          "type": "bytes32"
        }
      ],
      "name": "companyObjs",
      "outputs": [
        {
          "internalType": "bytes32",
          "name": "companyId",
          "type": "bytes32"
        },
        {
          "internalType": "string",
          "name": "name",
          "type": "string"
        },
        {
          "internalType": "string",
          "name": "ipfsComapnyHash",
          "type": "string"
        },
        {
          "internalType": "string",
          "name": "companyDomain",
          "type": "string"
        }
      ],
      "stateMutability": "view",
      "type": "function"
    },
    {
      "inputs": [
        {
          "internalType": "bytes32",
          "name": "",
          "type": "bytes32"
        }
      ],
      "name": "companyRatingObjs",
      "outputs": [
        {
          "internalType": "bytes32",
          "name": "companyId",
          "type": "bytes32"
        }
      ],
      "stateMutability": "view",
      "type": "function"
    },
    {
      "inputs": [],
      "name": "fetchAllCompanies",
      "outputs": [
        {
          "internalType": "bytes32[]",
          "name": "allCompanyIds",
          "type": "bytes32[]"
        },
        {
          "internalType": "string[]",
          "name": "ipfsComapnyHashes",
          "type": "string[]"
        },
        {
          "internalType": "string[]",
          "name": "companyDomains",
          "type": "string[]"
        }
      ],
      "stateMutability": "view",
      "type": "function"
    },
    {
      "inputs": [
        {
          "internalType": "string",
          "name": "companyDomain",
          "type": "string"
        }
      ],
      "name": "fetchCompanyRatings",
      "outputs": [
        {
          "internalType": "uint8[]",
          "name": "",
          "type": "uint8[]"
        },
        {
          "internalType": "bytes32[]",
          "name": "",
          "type": "bytes32[]"
        }
      ],
      "stateMutability": "view",
      "type": "function"
    },
    {
      "inputs": [
        {
          "internalType": "bytes32",
          "name": "ratingId",
          "type": "bytes32"
        }
      ],
      "name": "fetchRating",
      "outputs": [
        {
          "internalType": "uint8",
          "name": "rating",
          "type": "uint8"
        },
        {
          "internalType": "string",
          "name": "companyDomain",
          "type": "string"
        },
        {
          "internalType": "string",
          "name": "ipfsCommentHash",
          "type": "string"
        },
        {
          "internalType": "uint256",
          "name": "timeCreated",
          "type": "uint256"
        }
      ],
      "stateMutability": "view",
      "type": "function"
    },
    {
      "inputs": [],
      "name": "fetchUser",
      "outputs": [
        {
          "internalType": "string",
          "name": "companyDomain",
          "type": "string"
        },
        {
          "internalType": "bytes32[]",
          "name": "ratingHashes",
          "type": "bytes32[]"
        }
      ],
      "stateMutability": "view",
      "type": "function"
    },
    {
      "inputs": [],
      "name": "owner",
      "outputs": [
        {
          "internalType": "address",
          "name": "",
          "type": "address"
        }
      ],
      "stateMutability": "view",
      "type": "function"
    },
    {
      "inputs": [
        {
          "internalType": "bytes32",
          "name": "",
          "type": "bytes32"
        }
      ],
      "name": "ratingObjs",
      "outputs": [
        {
          "internalType": "bytes32",
          "name": "ratingId",
          "type": "bytes32"
        },
        {
          "internalType": "address",
          "name": "userAddress",
          "type": "address"
        },
        {
          "internalType": "bytes32",
          "name": "companyId",
          "type": "bytes32"
        },
        {
          "internalType": "string",
          "name": "companyDomain",
          "type": "string"
        },
        {
          "internalType": "uint8",
          "name": "ratingScore",
          "type": "uint8"
        },
        {
          "internalType": "string",
          "name": "ipfsCommentHash",
          "type": "string"
        },
        {
          "internalType": "uint256",
          "name": "timeCreated",
          "type": "uint256"
        }
      ],
      "stateMutability": "view",
      "type": "function"
    },
    {
      "inputs": [
        {
          "internalType": "string",
          "name": "companyName",
          "type": "string"
        },
        {
          "internalType": "string",
          "name": "ipfsComapnyHash",
          "type": "string"
        },
        {
          "internalType": "string",
          "name": "companyDomain",
          "type": "string"
        }
      ],
      "name": "registerCompany",
      "outputs": [],
      "stateMutability": "nonpayable",
      "type": "function"
    },
    {
      "inputs": [
        {
          "internalType": "string",
          "name": "companyDomain",
          "type": "string"
        }
      ],
      "name": "registerUser",
      "outputs": [],
      "stateMutability": "nonpayable",
      "type": "function"
    },
    {
      "inputs": [
        {
          "internalType": "address",
          "name": "",
          "type": "address"
        }
      ],
      "name": "users",
      "outputs": [
        {
          "internalType": "address",
          "name": "userAddress",
          "type": "address"
        },
        {
          "internalType": "bytes32",
          "name": "companyId",
          "type": "bytes32"
        }
      ],
      "stateMutability": "view",
      "type": "function"
    }
  ],
  "bytecode": "0x608060405234801561001057600080fd5b5033600160006101000a81548173ffffffffffffffffffffffffffffffffffffffff021916908373ffffffffffffffffffffffffffffffffffffffff16021790555061299f806100616000396000f3fe608060405234801561001057600080fd5b50600436106100cf5760003560e01c8063761f40c61161008c5780638da5cb5b116100665780638da5cb5b14610248578063a87430ba14610266578063d0b0207414610297578063ea8c6bc0146102b3576100cf565b8063761f40c6146101d75780638131d65c1461020d5780638337d90f14610229576100cf565b806301ee0899146100d45780631686fd7a146101045780632f4306671461013757806337d6cd4f146101685780636763b94114610188578063704f1b94146101bb575b600080fd5b6100ee60048036038101906100e99190611876565b6102e3565b6040516100fb91906118b2565b60405180910390f35b61011e60048036038101906101199190611876565b610301565b60405161012e9493929190611992565b60405180910390f35b610151600480360381019061014c9190611b1a565b610465565b60405161015f929190611cdf565b60405180910390f35b61017061062b565b60405161017f93929190611e22565b60405180910390f35b6101a2600480360381019061019d9190611876565b610962565b6040516101b29493929190611e6e565b60405180910390f35b6101d560048036038101906101d09190611b1a565b610b2a565b005b6101f160048036038101906101ec9190611876565b610cde565b6040516102049796959493929190611f09565b60405180910390f35b61022760048036038101906102229190611fb2565b610e5d565b005b610231611373565b60405161023f92919061203d565b60405180910390f35b6102506115c7565b60405161025d9190612074565b60405180910390f35b610280600480360381019061027b91906120bb565b6115ed565b60405161028e9291906120e8565b60405180910390f35b6102b160048036038101906102ac9190612111565b611631565b005b6102cd60048036038101906102c891906121e4565b61179e565b6040516102da91906118b2565b60405180910390f35b60056020528060005260406000206000915090508060000154905081565b60006060806000806004600087815260200190815260200160002090508060040160009054906101000a900460ff168160030182600501836006015482805461034990612240565b80601f016020809104026020016040519081016040528092919081815260200182805461037590612240565b80156103c25780601f10610397576101008083540402835291602001916103c2565b820191906000526020600020905b8154815290600101906020018083116103a557829003601f168201915b505050505092508180546103d590612240565b80601f016020809104026020016040519081016040528092919081815260200182805461040190612240565b801561044e5780601f106104235761010080835404028352916020019161044e565b820191906000526020600020905b81548152906001019060200180831161043157829003601f168201915b505050505091509450945094509450509193509193565b60608060008360405160200161047b91906122ad565b6040516020818303038152906040528051906020012090506000801b6003600083815260200190815260200160002060000154036104ee576040517f08c379a00000000000000000000000000000000000000000000000000000000081526004016104e590612310565b60405180910390fd5b60006005600083815260200190815260200160002090506000600567ffffffffffffffff811115610522576105216119ef565b5b6040519080825280602002602001820160405280156105505781602001602082028036833780820191505090505b50905060005b60058160ff1610156105c757826001016000600183610575919061235f565b60ff1660ff16815260200190815260200160002054828260ff16815181106105a05761059f612394565b5b602002602001019060ff16908160ff168152505080806105bf906123c3565b915050610556565b5080826002018080548060200260200160405190810160405280929190818152602001828054801561061857602002820191906000526020600020905b815481526020019060010190808311610604575b5050505050905094509450505050915091565b606080606060008080549050905060008167ffffffffffffffff811115610655576106546119ef565b5b6040519080825280602002602001820160405280156106835781602001602082028036833780820191505090505b50905060008267ffffffffffffffff8111156106a2576106a16119ef565b5b6040519080825280602002602001820160405280156106d557816020015b60608152602001906001900390816106c05790505b50905060008367ffffffffffffffff8111156106f4576106f36119ef565b5b60405190808252806020026020018201604052801561072757816020015b60608152602001906001900390816107125790505b50905060005b8481101561094f576003600080838154811061074c5761074b612394565b5b906000526020600020015481526020019081526020016000206000015484828151811061077c5761077b612394565b5b6020026020010181815250506003600080838154811061079f5761079e612394565b5b9060005260206000200154815260200190815260200160002060020180546107c690612240565b80601f01602080910402602001604051908101604052809291908181526020018280546107f290612240565b801561083f5780601f106108145761010080835404028352916020019161083f565b820191906000526020600020905b81548152906001019060200180831161082257829003601f168201915b505050505083828151811061085757610856612394565b5b60200260200101819052506003600080838154811061087957610878612394565b5b9060005260206000200154815260200190815260200160002060030180546108a090612240565b80601f01602080910402602001604051908101604052809291908181526020018280546108cc90612240565b80156109195780601f106108ee57610100808354040283529160200191610919565b820191906000526020600020905b8154815290600101906020018083116108fc57829003601f168201915b505050505082828151811061093157610930612394565b5b60200260200101819052508080610947906123ec565b91505061072d565b5082828296509650965050505050909192565b600360205280600052604060002060009150905080600001549080600101805461098b90612240565b80601f01602080910402602001604051908101604052809291908181526020018280546109b790612240565b8015610a045780601f106109d957610100808354040283529160200191610a04565b820191906000526020600020905b8154815290600101906020018083116109e757829003601f168201915b505050505090806002018054610a1990612240565b80601f0160208091040260200160405190810160405280929190818152602001828054610a4590612240565b8015610a925780601f10610a6757610100808354040283529160200191610a92565b820191906000526020600020905b815481529060010190602001808311610a7557829003601f168201915b505050505090806003018054610aa790612240565b80601f0160208091040260200160405190810160405280929190818152602001828054610ad390612240565b8015610b205780601f10610af557610100808354040283529160200191610b20565b820191906000526020600020905b815481529060010190602001808311610b0357829003601f168201915b5050505050905084565b600081604051602001610b3d91906122ad565b6040516020818303038152906040528051906020012090506000801b600360008381526020019081526020016000206000015403610bb0576040517f08c379a0000000000000000000000000000000000000000000000000000000008152600401610ba790612310565b60405180910390fd5b60405180606001604052803373ffffffffffffffffffffffffffffffffffffffff168152602001600067ffffffffffffffff811115610bf257610bf16119ef565b5b604051908082528060200260200182016040528015610c205781602001602082028036833780820191505090505b50815260200182815250600260003373ffffffffffffffffffffffffffffffffffffffff1673ffffffffffffffffffffffffffffffffffffffff16815260200190815260200160002060008201518160000160006101000a81548173ffffffffffffffffffffffffffffffffffffffff021916908373ffffffffffffffffffffffffffffffffffffffff1602179055506020820151816001019080519060200190610ccc9291906117c2565b50604082015181600201559050505050565b60046020528060005260406000206000915090508060000154908060010160009054906101000a900473ffffffffffffffffffffffffffffffffffffffff1690806002015490806003018054610d3390612240565b80601f0160208091040260200160405190810160405280929190818152602001828054610d5f90612240565b8015610dac5780601f10610d8157610100808354040283529160200191610dac565b820191906000526020600020905b815481529060010190602001808311610d8f57829003601f168201915b5050505050908060040160009054906101000a900460ff1690806005018054610dd490612240565b80601f0160208091040260200160405190810160405280929190818152602001828054610e0090612240565b8015610e4d5780601f10610e2257610100808354040283529160200191610e4d565b820191906000526020600020905b815481529060010190602001808311610e3057829003601f168201915b5050505050908060060154905087565b600082604051602001610e7091906122ad565b6040516020818303038152906040528051906020012090506000801b600360008381526020019081526020016000206000015403610ee3576040517f08c379a0000000000000000000000000000000000000000000000000000000008152600401610eda90612310565b60405180910390fd5b600073ffffffffffffffffffffffffffffffffffffffff16600260003373ffffffffffffffffffffffffffffffffffffffff1673ffffffffffffffffffffffffffffffffffffffff16815260200190815260200160002060000160009054906101000a900473ffffffffffffffffffffffffffffffffffffffff1673ffffffffffffffffffffffffffffffffffffffff1603610fb4576040517f08c379a0000000000000000000000000000000000000000000000000000000008152600401610fab90612480565b60405180910390fd5b80600260003373ffffffffffffffffffffffffffffffffffffffff1673ffffffffffffffffffffffffffffffffffffffff1681526020019081526020016000206002015414611038576040517f08c379a000000000000000000000000000000000000000000000000000000000815260040161102f90612512565b60405180910390fd5b6000338260405160200161104d92919061259b565b60405160208183030381529060405280519060200120905060005b600260003373ffffffffffffffffffffffffffffffffffffffff1673ffffffffffffffffffffffffffffffffffffffff168152602001908152602001600020600101805490508110156111685781600260003373ffffffffffffffffffffffffffffffffffffffff1673ffffffffffffffffffffffffffffffffffffffff168152602001908152602001600020600101828154811061110a57611109612394565b5b906000526020600020015403611155576040517f08c379a000000000000000000000000000000000000000000000000000000000815260040161114c90612639565b60405180910390fd5b8080611160906123ec565b915050611068565b5060006040518060e001604052808381526020013373ffffffffffffffffffffffffffffffffffffffff1681526020018481526020018681526020018760ff16815260200185815260200142815250905080600460008481526020019081526020016000206000820151816000015560208201518160010160006101000a81548173ffffffffffffffffffffffffffffffffffffffff021916908373ffffffffffffffffffffffffffffffffffffffff16021790555060408201518160020155606082015181600301908161123d9190612805565b5060808201518160040160006101000a81548160ff021916908360ff16021790555060a08201518160050190816112749190612805565b5060c08201518160060155905050600260003373ffffffffffffffffffffffffffffffffffffffff1673ffffffffffffffffffffffffffffffffffffffff1681526020019081526020016000206001018290806001815401808255809150506001900390600052602060002001600090919091909150556005600084815260200190815260200160002060010160008760ff1660ff1681526020019081526020016000206000815480929190611329906123ec565b919050555060056000848152602001908152602001600020600201829080600181540180825580915050600190039060005260206000200160009091909190915055505050505050565b606080600073ffffffffffffffffffffffffffffffffffffffff16600260003373ffffffffffffffffffffffffffffffffffffffff1673ffffffffffffffffffffffffffffffffffffffff16815260200190815260200160002060000160009054906101000a900473ffffffffffffffffffffffffffffffffffffffff1673ffffffffffffffffffffffffffffffffffffffff1603611447576040517f08c379a000000000000000000000000000000000000000000000000000000000815260040161143e90612480565b60405180910390fd5b60036000600260003373ffffffffffffffffffffffffffffffffffffffff1673ffffffffffffffffffffffffffffffffffffffff168152602001908152602001600020600201548152602001908152602001600020600301600260003373ffffffffffffffffffffffffffffffffffffffff1673ffffffffffffffffffffffffffffffffffffffff1681526020019081526020016000206001018180546114ed90612240565b80601f016020809104026020016040519081016040528092919081815260200182805461151990612240565b80156115665780601f1061153b57610100808354040283529160200191611566565b820191906000526020600020905b81548152906001019060200180831161154957829003601f168201915b50505050509150808054806020026020016040519081016040528092919081815260200182805480156115b857602002820191906000526020600020905b8154815260200190600101908083116115a4575b50505050509050915091509091565b600160009054906101000a900473ffffffffffffffffffffffffffffffffffffffff1681565b60026020528060005260406000206000915090508060000160009054906101000a900473ffffffffffffffffffffffffffffffffffffffff16908060020154905082565b600160009054906101000a900473ffffffffffffffffffffffffffffffffffffffff1673ffffffffffffffffffffffffffffffffffffffff163373ffffffffffffffffffffffffffffffffffffffff16146116c1576040517f08c379a00000000000000000000000000000000000000000000000000000000081526004016116b890612949565b60405180910390fd5b6000816040516020016116d491906122ad565b6040516020818303038152906040528051906020012090506000819080600181540180825580915050600190039060005260206000200160009091909190915055604051806080016040528082815260200185815260200184815260200183815250600360008381526020019081526020016000206000820151816000015560208201518160010190816117689190612805565b50604082015181600201908161177e9190612805565b5060608201518160030190816117949190612805565b5090505050505050565b600081815481106117ae57600080fd5b906000526020600020016000915090505481565b8280548282559060005260206000209081019282156117fe579160200282015b828111156117fd5782518255916020019190600101906117e2565b5b50905061180b919061180f565b5090565b5b80821115611828576000816000905550600101611810565b5090565b6000604051905090565b600080fd5b600080fd5b6000819050919050565b61185381611840565b811461185e57600080fd5b50565b6000813590506118708161184a565b92915050565b60006020828403121561188c5761188b611836565b5b600061189a84828501611861565b91505092915050565b6118ac81611840565b82525050565b60006020820190506118c760008301846118a3565b92915050565b600060ff82169050919050565b6118e3816118cd565b82525050565b600081519050919050565b600082825260208201905092915050565b60005b83811015611923578082015181840152602081019050611908565b60008484015250505050565b6000601f19601f8301169050919050565b600061194b826118e9565b61195581856118f4565b9350611965818560208601611905565b61196e8161192f565b840191505092915050565b6000819050919050565b61198c81611979565b82525050565b60006080820190506119a760008301876118da565b81810360208301526119b98186611940565b905081810360408301526119cd8185611940565b90506119dc6060830184611983565b95945050505050565b600080fd5b600080fd5b7f4e487b7100000000000000000000000000000000000000000000000000000000600052604160045260246000fd5b611a278261192f565b810181811067ffffffffffffffff82111715611a4657611a456119ef565b5b80604052505050565b6000611a5961182c565b9050611a658282611a1e565b919050565b600067ffffffffffffffff821115611a8557611a846119ef565b5b611a8e8261192f565b9050602081019050919050565b82818337600083830152505050565b6000611abd611ab884611a6a565b611a4f565b905082815260208101848484011115611ad957611ad86119ea565b5b611ae4848285611a9b565b509392505050565b600082601f830112611b0157611b006119e5565b5b8135611b11848260208601611aaa565b91505092915050565b600060208284031215611b3057611b2f611836565b5b600082013567ffffffffffffffff811115611b4e57611b4d61183b565b5b611b5a84828501611aec565b91505092915050565b600081519050919050565b600082825260208201905092915050565b6000819050602082019050919050565b611b98816118cd565b82525050565b6000611baa8383611b8f565b60208301905092915050565b6000602082019050919050565b6000611bce82611b63565b611bd88185611b6e565b9350611be383611b7f565b8060005b83811015611c14578151611bfb8882611b9e565b9750611c0683611bb6565b925050600181019050611be7565b5085935050505092915050565b600081519050919050565b600082825260208201905092915050565b6000819050602082019050919050565b611c5681611840565b82525050565b6000611c688383611c4d565b60208301905092915050565b6000602082019050919050565b6000611c8c82611c21565b611c968185611c2c565b9350611ca183611c3d565b8060005b83811015611cd2578151611cb98882611c5c565b9750611cc483611c74565b925050600181019050611ca5565b5085935050505092915050565b60006040820190508181036000830152611cf98185611bc3565b90508181036020830152611d0d8184611c81565b90509392505050565b600081519050919050565b600082825260208201905092915050565b6000819050602082019050919050565b600082825260208201905092915050565b6000611d5e826118e9565b611d688185611d42565b9350611d78818560208601611905565b611d818161192f565b840191505092915050565b6000611d988383611d53565b905092915050565b6000602082019050919050565b6000611db882611d16565b611dc28185611d21565b935083602082028501611dd485611d32565b8060005b85811015611e105784840389528151611df18582611d8c565b9450611dfc83611da0565b925060208a01995050600181019050611dd8565b50829750879550505050505092915050565b60006060820190508181036000830152611e3c8186611c81565b90508181036020830152611e508185611dad565b90508181036040830152611e648184611dad565b9050949350505050565b6000608082019050611e8360008301876118a3565b8181036020830152611e958186611940565b90508181036040830152611ea98185611940565b90508181036060830152611ebd8184611940565b905095945050505050565b600073ffffffffffffffffffffffffffffffffffffffff82169050919050565b6000611ef382611ec8565b9050919050565b611f0381611ee8565b82525050565b600060e082019050611f1e600083018a6118a3565b611f2b6020830189611efa565b611f3860408301886118a3565b8181036060830152611f4a8187611940565b9050611f5960808301866118da565b81810360a0830152611f6b8185611940565b9050611f7a60c0830184611983565b98975050505050505050565b611f8f816118cd565b8114611f9a57600080fd5b50565b600081359050611fac81611f86565b92915050565b600080600060608486031215611fcb57611fca611836565b5b6000611fd986828701611f9d565b935050602084013567ffffffffffffffff811115611ffa57611ff961183b565b5b61200686828701611aec565b925050604084013567ffffffffffffffff8111156120275761202661183b565b5b61203386828701611aec565b9150509250925092565b600060408201905081810360008301526120578185611940565b9050818103602083015261206b8184611c81565b90509392505050565b60006020820190506120896000830184611efa565b92915050565b61209881611ee8565b81146120a357600080fd5b50565b6000813590506120b58161208f565b92915050565b6000602082840312156120d1576120d0611836565b5b60006120df848285016120a6565b91505092915050565b60006040820190506120fd6000830185611efa565b61210a60208301846118a3565b9392505050565b60008060006060848603121561212a57612129611836565b5b600084013567ffffffffffffffff8111156121485761214761183b565b5b61215486828701611aec565b935050602084013567ffffffffffffffff8111156121755761217461183b565b5b61218186828701611aec565b925050604084013567ffffffffffffffff8111156121a2576121a161183b565b5b6121ae86828701611aec565b9150509250925092565b6121c181611979565b81146121cc57600080fd5b50565b6000813590506121de816121b8565b92915050565b6000602082840312156121fa576121f9611836565b5b6000612208848285016121cf565b91505092915050565b7f4e487b7100000000000000000000000000000000000000000000000000000000600052602260045260246000fd5b6000600282049050600182168061225857607f821691505b60208210810361226b5761226a612211565b5b50919050565b600081905092915050565b6000612287826118e9565b6122918185612271565b93506122a1818560208601611905565b80840191505092915050565b60006122b9828461227c565b915081905092915050565b7f436f6d70616e79206e6f74207265676973746572656400000000000000000000600082015250565b60006122fa6016836118f4565b9150612305826122c4565b602082019050919050565b60006020820190508181036000830152612329816122ed565b9050919050565b7f4e487b7100000000000000000000000000000000000000000000000000000000600052601160045260246000fd5b600061236a826118cd565b9150612375836118cd565b9250828201905060ff81111561238e5761238d612330565b5b92915050565b7f4e487b7100000000000000000000000000000000000000000000000000000000600052603260045260246000fd5b60006123ce826118cd565b915060ff82036123e1576123e0612330565b5b600182019050919050565b60006123f782611979565b91507fffffffffffffffffffffffffffffffffffffffffffffffffffffffffffffffff820361242957612428612330565b5b600182019050919050565b7f55736572206e6f74207265676973746572656400000000000000000000000000600082015250565b600061246a6013836118f4565b915061247582612434565b602082019050919050565b600060208201905081810360008301526124998161245d565b9050919050565b7f55736572206e6f74207265676973746572656420776974682074686520636f6d60008201527f70616e7900000000000000000000000000000000000000000000000000000000602082015250565b60006124fc6024836118f4565b9150612507826124a0565b604082019050919050565b6000602082019050818103600083015261252b816124ef565b9050919050565b60008160601b9050919050565b600061254a82612532565b9050919050565b600061255c8261253f565b9050919050565b61257461256f82611ee8565b612551565b82525050565b6000819050919050565b61259561259082611840565b61257a565b82525050565b60006125a78285612563565b6014820191506125b78284612584565b6020820191508190509392505050565b7f526174696e6720616c72656164792065786973747320666f722074686520757360008201527f657220616e6420636f6d70616e79000000000000000000000000000000000000602082015250565b6000612623602e836118f4565b915061262e826125c7565b604082019050919050565b6000602082019050818103600083015261265281612616565b9050919050565b60008190508160005260206000209050919050565b60006020601f8301049050919050565b600082821b905092915050565b6000600883026126bb7fffffffffffffffffffffffffffffffffffffffffffffffffffffffffffffffff8261267e565b6126c5868361267e565b95508019841693508086168417925050509392505050565b6000819050919050565b60006127026126fd6126f884611979565b6126dd565b611979565b9050919050565b6000819050919050565b61271c836126e7565b61273061272882612709565b84845461268b565b825550505050565b600090565b612745612738565b612750818484612713565b505050565b5b818110156127745761276960008261273d565b600181019050612756565b5050565b601f8211156127b95761278a81612659565b6127938461266e565b810160208510156127a2578190505b6127b66127ae8561266e565b830182612755565b50505b505050565b600082821c905092915050565b60006127dc600019846008026127be565b1980831691505092915050565b60006127f583836127cb565b9150826002028217905092915050565b61280e826118e9565b67ffffffffffffffff811115612827576128266119ef565b5b6128318254612240565b61283c828285612778565b600060209050601f83116001811461286f576000841561285d578287015190505b61286785826127e9565b8655506128cf565b601f19841661287d86612659565b60005b828110156128a557848901518255600182019150602085019450602081019050612880565b868310156128c257848901516128be601f8916826127cb565b8355505b6001600288020188555050505b505050505050565b7f4f6e6c79206f776e65722063616e207265676973746572206120636f6d70616e60008201527f7900000000000000000000000000000000000000000000000000000000000000602082015250565b60006129336021836118f4565b915061293e826128d7565b604082019050919050565b6000602082019050818103600083015261296281612926565b905091905056fea26469706673582212202c7d602e9a9e86cb299fce8463803ffa648dbb1d81ce9d04f6704efc881b344e64736f6c63430008130033",
  "linkReferences": {},
  "deployedLinkReferences": {}
}