{
    "_format": "hh-sol-artifact-1",
    "contractName": "Glasschain",
    "sourceName": "contracts/Glasschain.sol",
    "abi": [
        {
            "inputs": [],
            "stateMutability": "nonpayable",
            "type": "constructor"
        },
        {
            "inputs": [
                {
                    "internalType": "uint8",
                    "name": "ratingScore",
                    "type": "uint8"
                },
                {
                    "internalType": "string",
                    "name": "companyDomain",
                    "type": "string"
                },
                {
                    "internalType": "bytes32",
                    "name": "ipfsCommentHash",
                    "type": "bytes32"
                }
            ],
            "name": "addReview",
            "outputs": [],
            "stateMutability": "nonpayable",
            "type": "function"
        },
        {
            "inputs": [
                {
                    "internalType": "uint256",
                    "name": "",
                    "type": "uint256"
                }
            ],
            "name": "companyIds",
            "outputs": [
                {
                    "internalType": "bytes32",
                    "name": "",
                    "type": "bytes32"
                }
            ],
            "stateMutability": "view",
            "type": "function"
        },
        {
            "inputs": [
                {
                    "internalType": "bytes32",
                    "name": "",
                    "type": "bytes32"
                }
            ],
            "name": "companyObjs",
            "outputs": [
                {
                    "internalType": "bytes32",
                    "name": "companyId",
                    "type": "bytes32"
                },
                {
                    "internalType": "string",
                    "name": "name",
                    "type": "string"
                },
                {
                    "internalType": "bytes32",
                    "name": "ipfsComapnyHash",
                    "type": "bytes32"
                },
                {
                    "internalType": "string",
                    "name": "companyDomain",
                    "type": "string"
                }
            ],
            "stateMutability": "view",
            "type": "function"
        },
        {
            "inputs": [
                {
                    "internalType": "bytes32",
                    "name": "",
                    "type": "bytes32"
                }
            ],
            "name": "companyRatingObjs",
            "outputs": [
                {
                    "internalType": "bytes32",
                    "name": "companyId",
                    "type": "bytes32"
                }
            ],
            "stateMutability": "view",
            "type": "function"
        },
        {
            "inputs": [],
            "name": "fetchAllCompanies",
            "outputs": [
                {
                    "internalType": "bytes32[]",
                    "name": "allCompanyIds",
                    "type": "bytes32[]"
                },
                {
                    "internalType": "bytes32[]",
                    "name": "ipfsComapnyHashes",
                    "type": "bytes32[]"
                },
                {
                    "internalType": "string[]",
                    "name": "companyDomains",
                    "type": "string[]"
                }
            ],
            "stateMutability": "view",
            "type": "function"
        },
        {
            "inputs": [
                {
                    "internalType": "string",
                    "name": "companyDomain",
                    "type": "string"
                }
            ],
            "name": "fetchCompanyRatings",
            "outputs": [
                {
                    "internalType": "uint8[]",
                    "name": "",
                    "type": "uint8[]"
                },
                {
                    "internalType": "bytes32[]",
                    "name": "",
                    "type": "bytes32[]"
                }
            ],
            "stateMutability": "view",
            "type": "function"
        },
        {
            "inputs": [],
            "name": "owner",
            "outputs": [
                {
                    "internalType": "address",
                    "name": "",
                    "type": "address"
                }
            ],
            "stateMutability": "view",
            "type": "function"
        },
        {
            "inputs": [
                {
                    "internalType": "bytes32",
                    "name": "",
                    "type": "bytes32"
                }
            ],
            "name": "ratingObjs",
            "outputs": [
                {
                    "internalType": "bytes32",
                    "name": "ratingId",
                    "type": "bytes32"
                },
                {
                    "internalType": "address",
                    "name": "userAddress",
                    "type": "address"
                },
                {
                    "internalType": "bytes32",
                    "name": "companyId",
                    "type": "bytes32"
                },
                {
                    "internalType": "uint8",
                    "name": "ratingScore",
                    "type": "uint8"
                },
                {
                    "internalType": "bytes32",
                    "name": "ipfsCommentHash",
                    "type": "bytes32"
                },
                {
                    "internalType": "uint256",
                    "name": "timeCreated",
                    "type": "uint256"
                }
            ],
            "stateMutability": "view",
            "type": "function"
        },
        {
            "inputs": [
                {
                    "internalType": "string",
                    "name": "companyName",
                    "type": "string"
                },
                {
                    "internalType": "bytes32",
                    "name": "ipfsComapnyHash",
                    "type": "bytes32"
                },
                {
                    "internalType": "string",
                    "name": "companyDomain",
                    "type": "string"
                }
            ],
            "name": "registerCompany",
            "outputs": [],
            "stateMutability": "nonpayable",
            "type": "function"
        },
        {
            "inputs": [
                {
                    "internalType": "string",
                    "name": "companyDomain",
                    "type": "string"
                }
            ],
            "name": "registerUser",
            "outputs": [],
            "stateMutability": "nonpayable",
            "type": "function"
        },
        {
            "inputs": [
                {
                    "internalType": "address",
                    "name": "",
                    "type": "address"
                }
            ],
            "name": "users",
            "outputs": [
                {
                    "internalType": "address",
                    "name": "userAddress",
                    "type": "address"
                },
                {
                    "internalType": "bytes32",
                    "name": "companyId",
                    "type": "bytes32"
                }
            ],
            "stateMutability": "view",
            "type": "function"
        }
    ],
    "bytecode": "0x608060405234801561001057600080fd5b5033600160006101000a81548173ffffffffffffffffffffffffffffffffffffffff021916908373ffffffffffffffffffffffffffffffffffffffff16021790555061222b806100616000396000f3fe608060405234801561001057600080fd5b50600436106100a95760003560e01c8063704f1b9411610071578063704f1b941461017e5780637217aa111461019a578063761f40c6146101b65780638da5cb5b146101eb578063a87430ba14610209578063ea8c6bc01461023a576100a9565b806301ee0899146100ae5780631e60898c146100de5780632f430667146100fa57806337d6cd4f1461012b5780636763b9411461014b575b600080fd5b6100c860048036038101906100c391906111e7565b61026a565b6040516100d59190611223565b60405180910390f35b6100f860048036038101906100f391906113bd565b610288565b005b610114600480360381019061010f919061142c565b610776565b6040516101229291906115f1565b60405180910390f35b61013361093c565b60405161014293929190611769565b60405180910390f35b610165600480360381019061016091906111e7565b610be7565b60405161017594939291906117ff565b60405180910390f35b6101986004803603810190610193919061142c565b610d27565b005b6101b460048036038101906101af9190611852565b610edb565b005b6101d060048036038101906101cb91906111e7565b61103c565b6040516101e296959493929190611946565b60405180910390f35b6101f36110a5565b60405161020091906119a7565b60405180910390f35b610223600480360381019061021e91906119ee565b6110cb565b604051610231929190611a1b565b60405180910390f35b610254600480360381019061024f9190611a70565b61110f565b6040516102619190611223565b60405180910390f35b60056020528060005260406000206000915090508060000154905081565b60008260405160200161029b9190611ad9565b6040516020818303038152906040528051906020012090506000801b60036000838152602001908152602001600020600001540361030e576040517f08c379a000000000000000000000000000000000000000000000000000000000815260040161030590611b3c565b60405180910390fd5b600073ffffffffffffffffffffffffffffffffffffffff16600260003373ffffffffffffffffffffffffffffffffffffffff1673ffffffffffffffffffffffffffffffffffffffff16815260200190815260200160002060000160009054906101000a900473ffffffffffffffffffffffffffffffffffffffff1673ffffffffffffffffffffffffffffffffffffffff16036103df576040517f08c379a00000000000000000000000000000000000000000000000000000000081526004016103d690611ba8565b60405180910390fd5b80600260003373ffffffffffffffffffffffffffffffffffffffff1673ffffffffffffffffffffffffffffffffffffffff1681526020019081526020016000206002015414610463576040517f08c379a000000000000000000000000000000000000000000000000000000000815260040161045a90611c3a565b60405180910390fd5b60003382604051602001610478929190611cc3565b60405160208183030381529060405280519060200120905060005b600260003373ffffffffffffffffffffffffffffffffffffffff1673ffffffffffffffffffffffffffffffffffffffff168152602001908152602001600020600101805490508110156105935781600260003373ffffffffffffffffffffffffffffffffffffffff1673ffffffffffffffffffffffffffffffffffffffff168152602001908152602001600020600101828154811061053557610534611cef565b5b906000526020600020015403610580576040517f08c379a000000000000000000000000000000000000000000000000000000000815260040161057790611d90565b60405180910390fd5b808061058b90611ddf565b915050610493565b5060006040518060c001604052808381526020013373ffffffffffffffffffffffffffffffffffffffff1681526020018481526020018760ff16815260200185815260200142815250905080600460008481526020019081526020016000206000820151816000015560208201518160010160006101000a81548173ffffffffffffffffffffffffffffffffffffffff021916908373ffffffffffffffffffffffffffffffffffffffff1602179055506040820151816002015560608201518160030160006101000a81548160ff021916908360ff1602179055506080820151816004015560a08201518160050155905050600260003373ffffffffffffffffffffffffffffffffffffffff1673ffffffffffffffffffffffffffffffffffffffff1681526020019081526020016000206001018290806001815401808255809150506001900390600052602060002001600090919091909150556005600084815260200190815260200160002060010160008760ff1660ff168152602001908152602001600020600081548092919061072c90611ddf565b919050555060056000848152602001908152602001600020600201829080600181540180825580915050600190039060005260206000200160009091909190915055505050505050565b60608060008360405160200161078c9190611ad9565b6040516020818303038152906040528051906020012090506000801b6003600083815260200190815260200160002060000154036107ff576040517f08c379a00000000000000000000000000000000000000000000000000000000081526004016107f690611b3c565b60405180910390fd5b60006005600083815260200190815260200160002090506000600567ffffffffffffffff81111561083357610832611292565b5b6040519080825280602002602001820160405280156108615781602001602082028036833780820191505090505b50905060005b60058160ff1610156108d8578260010160006001836108869190611e27565b60ff1660ff16815260200190815260200160002054828260ff16815181106108b1576108b0611cef565b5b602002602001019060ff16908160ff168152505080806108d090611e5c565b915050610867565b5080826002018080548060200260200160405190810160405280929190818152602001828054801561092957602002820191906000526020600020905b815481526020019060010190808311610915575b5050505050905094509450505050915091565b606080606060008080549050905060008167ffffffffffffffff81111561096657610965611292565b5b6040519080825280602002602001820160405280156109945781602001602082028036833780820191505090505b50905060008267ffffffffffffffff8111156109b3576109b2611292565b5b6040519080825280602002602001820160405280156109e15781602001602082028036833780820191505090505b50905060008367ffffffffffffffff811115610a00576109ff611292565b5b604051908082528060200260200182016040528015610a3357816020015b6060815260200190600190039081610a1e5790505b50905060005b84811015610bd45760036000808381548110610a5857610a57611cef565b5b9060005260206000200154815260200190815260200160002060000154848281518110610a8857610a87611cef565b5b60200260200101818152505060036000808381548110610aab57610aaa611cef565b5b9060005260206000200154815260200190815260200160002060020154838281518110610adb57610ada611cef565b5b60200260200101818152505060036000808381548110610afe57610afd611cef565b5b906000526020600020015481526020019081526020016000206003018054610b2590611eb4565b80601f0160208091040260200160405190810160405280929190818152602001828054610b5190611eb4565b8015610b9e5780601f10610b7357610100808354040283529160200191610b9e565b820191906000526020600020905b815481529060010190602001808311610b8157829003601f168201915b5050505050828281518110610bb657610bb5611cef565b5b60200260200101819052508080610bcc90611ddf565b915050610a39565b5082828296509650965050505050909192565b6003602052806000526040600020600091509050806000015490806001018054610c1090611eb4565b80601f0160208091040260200160405190810160405280929190818152602001828054610c3c90611eb4565b8015610c895780601f10610c5e57610100808354040283529160200191610c89565b820191906000526020600020905b815481529060010190602001808311610c6c57829003601f168201915b505050505090806002015490806003018054610ca490611eb4565b80601f0160208091040260200160405190810160405280929190818152602001828054610cd090611eb4565b8015610d1d5780601f10610cf257610100808354040283529160200191610d1d565b820191906000526020600020905b815481529060010190602001808311610d0057829003601f168201915b5050505050905084565b600081604051602001610d3a9190611ad9565b6040516020818303038152906040528051906020012090506000801b600360008381526020019081526020016000206000015403610dad576040517f08c379a0000000000000000000000000000000000000000000000000000000008152600401610da490611b3c565b60405180910390fd5b60405180606001604052803373ffffffffffffffffffffffffffffffffffffffff168152602001600067ffffffffffffffff811115610def57610dee611292565b5b604051908082528060200260200182016040528015610e1d5781602001602082028036833780820191505090505b50815260200182815250600260003373ffffffffffffffffffffffffffffffffffffffff1673ffffffffffffffffffffffffffffffffffffffff16815260200190815260200160002060008201518160000160006101000a81548173ffffffffffffffffffffffffffffffffffffffff021916908373ffffffffffffffffffffffffffffffffffffffff1602179055506020820151816001019080519060200190610ec9929190611133565b50604082015181600201559050505050565b600160009054906101000a900473ffffffffffffffffffffffffffffffffffffffff1673ffffffffffffffffffffffffffffffffffffffff163373ffffffffffffffffffffffffffffffffffffffff1614610f6b576040517f08c379a0000000000000000000000000000000000000000000000000000000008152600401610f6290611f57565b60405180910390fd5b600081604051602001610f7e9190611ad9565b6040516020818303038152906040528051906020012090506000819080600181540180825580915050600190039060005260206000200160009091909190915055604051806080016040528082815260200185815260200184815260200183815250600360008381526020019081526020016000206000820151816000015560208201518160010190816110129190612123565b506040820151816002015560608201518160030190816110329190612123565b5090505050505050565b60046020528060005260406000206000915090508060000154908060010160009054906101000a900473ffffffffffffffffffffffffffffffffffffffff16908060020154908060030160009054906101000a900460ff16908060040154908060050154905086565b600160009054906101000a900473ffffffffffffffffffffffffffffffffffffffff1681565b60026020528060005260406000206000915090508060000160009054906101000a900473ffffffffffffffffffffffffffffffffffffffff16908060020154905082565b6000818154811061111f57600080fd5b906000526020600020016000915090505481565b82805482825590600052602060002090810192821561116f579160200282015b8281111561116e578251825591602001919060010190611153565b5b50905061117c9190611180565b5090565b5b80821115611199576000816000905550600101611181565b5090565b6000604051905090565b600080fd5b600080fd5b6000819050919050565b6111c4816111b1565b81146111cf57600080fd5b50565b6000813590506111e1816111bb565b92915050565b6000602082840312156111fd576111fc6111a7565b5b600061120b848285016111d2565b91505092915050565b61121d816111b1565b82525050565b60006020820190506112386000830184611214565b92915050565b600060ff82169050919050565b6112548161123e565b811461125f57600080fd5b50565b6000813590506112718161124b565b92915050565b600080fd5b600080fd5b6000601f19601f8301169050919050565b7f4e487b7100000000000000000000000000000000000000000000000000000000600052604160045260246000fd5b6112ca82611281565b810181811067ffffffffffffffff821117156112e9576112e8611292565b5b80604052505050565b60006112fc61119d565b905061130882826112c1565b919050565b600067ffffffffffffffff82111561132857611327611292565b5b61133182611281565b9050602081019050919050565b82818337600083830152505050565b600061136061135b8461130d565b6112f2565b90508281526020810184848401111561137c5761137b61127c565b5b61138784828561133e565b509392505050565b600082601f8301126113a4576113a3611277565b5b81356113b484826020860161134d565b91505092915050565b6000806000606084860312156113d6576113d56111a7565b5b60006113e486828701611262565b935050602084013567ffffffffffffffff811115611405576114046111ac565b5b6114118682870161138f565b9250506040611422868287016111d2565b9150509250925092565b600060208284031215611442576114416111a7565b5b600082013567ffffffffffffffff8111156114605761145f6111ac565b5b61146c8482850161138f565b91505092915050565b600081519050919050565b600082825260208201905092915050565b6000819050602082019050919050565b6114aa8161123e565b82525050565b60006114bc83836114a1565b60208301905092915050565b6000602082019050919050565b60006114e082611475565b6114ea8185611480565b93506114f583611491565b8060005b8381101561152657815161150d88826114b0565b9750611518836114c8565b9250506001810190506114f9565b5085935050505092915050565b600081519050919050565b600082825260208201905092915050565b6000819050602082019050919050565b611568816111b1565b82525050565b600061157a838361155f565b60208301905092915050565b6000602082019050919050565b600061159e82611533565b6115a8818561153e565b93506115b38361154f565b8060005b838110156115e45781516115cb888261156e565b97506115d683611586565b9250506001810190506115b7565b5085935050505092915050565b6000604082019050818103600083015261160b81856114d5565b9050818103602083015261161f8184611593565b90509392505050565b600081519050919050565b600082825260208201905092915050565b6000819050602082019050919050565b600081519050919050565b600082825260208201905092915050565b60005b8381101561168e578082015181840152602081019050611673565b60008484015250505050565b60006116a582611654565b6116af818561165f565b93506116bf818560208601611670565b6116c881611281565b840191505092915050565b60006116df838361169a565b905092915050565b6000602082019050919050565b60006116ff82611628565b6117098185611633565b93508360208202850161171b85611644565b8060005b85811015611757578484038952815161173885826116d3565b9450611743836116e7565b925060208a0199505060018101905061171f565b50829750879550505050505092915050565b600060608201905081810360008301526117838186611593565b905081810360208301526117978185611593565b905081810360408301526117ab81846116f4565b9050949350505050565b600082825260208201905092915050565b60006117d182611654565b6117db81856117b5565b93506117eb818560208601611670565b6117f481611281565b840191505092915050565b60006080820190506118146000830187611214565b818103602083015261182681866117c6565b90506118356040830185611214565b818103606083015261184781846117c6565b905095945050505050565b60008060006060848603121561186b5761186a6111a7565b5b600084013567ffffffffffffffff811115611889576118886111ac565b5b6118958682870161138f565b93505060206118a6868287016111d2565b925050604084013567ffffffffffffffff8111156118c7576118c66111ac565b5b6118d38682870161138f565b9150509250925092565b600073ffffffffffffffffffffffffffffffffffffffff82169050919050565b6000611908826118dd565b9050919050565b611918816118fd565b82525050565b6119278161123e565b82525050565b6000819050919050565b6119408161192d565b82525050565b600060c08201905061195b6000830189611214565b611968602083018861190f565b6119756040830187611214565b611982606083018661191e565b61198f6080830185611214565b61199c60a0830184611937565b979650505050505050565b60006020820190506119bc600083018461190f565b92915050565b6119cb816118fd565b81146119d657600080fd5b50565b6000813590506119e8816119c2565b92915050565b600060208284031215611a0457611a036111a7565b5b6000611a12848285016119d9565b91505092915050565b6000604082019050611a30600083018561190f565b611a3d6020830184611214565b9392505050565b611a4d8161192d565b8114611a5857600080fd5b50565b600081359050611a6a81611a44565b92915050565b600060208284031215611a8657611a856111a7565b5b6000611a9484828501611a5b565b91505092915050565b600081905092915050565b6000611ab382611654565b611abd8185611a9d565b9350611acd818560208601611670565b80840191505092915050565b6000611ae58284611aa8565b915081905092915050565b7f436f6d70616e79206e6f74207265676973746572656400000000000000000000600082015250565b6000611b266016836117b5565b9150611b3182611af0565b602082019050919050565b60006020820190508181036000830152611b5581611b19565b9050919050565b7f55736572206e6f74207265676973746572656400000000000000000000000000600082015250565b6000611b926013836117b5565b9150611b9d82611b5c565b602082019050919050565b60006020820190508181036000830152611bc181611b85565b9050919050565b7f55736572206e6f74207265676973746572656420776974682074686520636f6d60008201527f70616e7900000000000000000000000000000000000000000000000000000000602082015250565b6000611c246024836117b5565b9150611c2f82611bc8565b604082019050919050565b60006020820190508181036000830152611c5381611c17565b9050919050565b60008160601b9050919050565b6000611c7282611c5a565b9050919050565b6000611c8482611c67565b9050919050565b611c9c611c97826118fd565b611c79565b82525050565b6000819050919050565b611cbd611cb8826111b1565b611ca2565b82525050565b6000611ccf8285611c8b565b601482019150611cdf8284611cac565b6020820191508190509392505050565b7f4e487b7100000000000000000000000000000000000000000000000000000000600052603260045260246000fd5b7f526174696e6720616c72656164792065786973747320666f722074686520757360008201527f657220616e6420636f6d70616e79000000000000000000000000000000000000602082015250565b6000611d7a602e836117b5565b9150611d8582611d1e565b604082019050919050565b60006020820190508181036000830152611da981611d6d565b9050919050565b7f4e487b7100000000000000000000000000000000000000000000000000000000600052601160045260246000fd5b6000611dea8261192d565b91507fffffffffffffffffffffffffffffffffffffffffffffffffffffffffffffffff8203611e1c57611e1b611db0565b5b600182019050919050565b6000611e328261123e565b9150611e3d8361123e565b9250828201905060ff811115611e5657611e55611db0565b5b92915050565b6000611e678261123e565b915060ff8203611e7a57611e79611db0565b5b600182019050919050565b7f4e487b7100000000000000000000000000000000000000000000000000000000600052602260045260246000fd5b60006002820490506001821680611ecc57607f821691505b602082108103611edf57611ede611e85565b5b50919050565b7f4f6e6c79206f776e65722063616e207265676973746572206120636f6d70616e60008201527f7900000000000000000000000000000000000000000000000000000000000000602082015250565b6000611f416021836117b5565b9150611f4c82611ee5565b604082019050919050565b60006020820190508181036000830152611f7081611f34565b9050919050565b60008190508160005260206000209050919050565b60006020601f8301049050919050565b600082821b905092915050565b600060088302611fd97fffffffffffffffffffffffffffffffffffffffffffffffffffffffffffffffff82611f9c565b611fe38683611f9c565b95508019841693508086168417925050509392505050565b6000819050919050565b600061202061201b6120168461192d565b611ffb565b61192d565b9050919050565b6000819050919050565b61203a83612005565b61204e61204682612027565b848454611fa9565b825550505050565b600090565b612063612056565b61206e818484612031565b505050565b5b818110156120925761208760008261205b565b600181019050612074565b5050565b601f8211156120d7576120a881611f77565b6120b184611f8c565b810160208510156120c0578190505b6120d46120cc85611f8c565b830182612073565b50505b505050565b600082821c905092915050565b60006120fa600019846008026120dc565b1980831691505092915050565b600061211383836120e9565b9150826002028217905092915050565b61212c82611654565b67ffffffffffffffff81111561214557612144611292565b5b61214f8254611eb4565b61215a828285612096565b600060209050601f83116001811461218d576000841561217b578287015190505b6121858582612107565b8655506121ed565b601f19841661219b86611f77565b60005b828110156121c35784890151825560018201915060208501945060208101905061219e565b868310156121e057848901516121dc601f8916826120e9565b8355505b6001600288020188555050505b50505050505056fea2646970667358221220d576ff228955642e655deae73a89b6f0434e4761251291bc95554300060716c364736f6c63430008130033",
    "linkReferences": {},
    "deployedLinkReferences": {}
}